0052GFRH000F00030000NNNNYNNNYNNNNNNNNNNNNNNNNNNNN4NN0092GFIS000F00040001DL 756920110526YVR  SEA  000YNNNNNNN17501840Y NNNNNNNN00000127NNNNNNNN  0152GFSR000F000600010101                 YA00A0MC        2PC       248.720010011E0012700000NNNNNNNNYA00A0MCYA00A0MC     N                           0.000205GFRI000F000400010101NNNNNNNNYVR  SEA  20110526DL YA00A0MC  0024872NUC200241000000000000000000YYNNNNNNNNNNNNNN       4040000404000000NNNNNNNN00000004E1000090000400309                    199             0092GFIS000F00040002AS 238020110526SEA  YYJ  000YNNNNNNN23002345Y NNNNNNNN00000098NNNNNNNN  0152GFSR000F000600010102                 YASR1                     248.720020012E0009800000NNNNNNNNYASR1   YASR1        N                           0.000205GFRI000F000400010102NNNNNNNNSEA  YYJ  20110526AS YASR1     0024872NUC200241000000000000000000YYNNNNNNNNNNNNNN       4040000404000000NNNNNNNN00000004A0210020000400152                    199          ADT0092GFIS000F00040003AS 238120110527YYJ  SEA  000YNNNNNNN06000638Y NNNNNNNN00000098NNNNNNNN  0152GFSR000F000600010103                 YASR1                     248.720030013E0009800000NNNNNNNNYASR1   YASR1        N                           0.000205GFRI000F000400010103NNNNNNNNYYJ  SEA  20110527AS YASR1     0024872NUC200241000000000000000000YYNNNNNNNNNNNNNN       4040000404000000NNNNNNNN00000004A0210020000400152                    199          ADT0092GFIS000F00040004DL 916520110527SEA  YVR  000YNNNNNNN09000950Y NNNNNNNN00000127NNNNNNNN  0152GFSR000F000600010104                 YA00A0MC        2PC       248.720040014E0012700000NNNNNNNNYA00A0MCYA00A0MC     N                           0.000205GFRI000F000400010104NNNNNNNNSEA  YVR  20110527DL YA00A0MC  0024872NUC200241000000000000000000YYNNNNNNNNNNNNNN       4040000404000000NNNNNNNN00000004E1000090000400309                    199             0232GFGQ000F0003000101G2011041620110526    CAD00000096600000000000002USD000001014002USD000001249752               YNNNNNNNNNNNNNNN10AY00005.00US00076.05XA00010.00XF00009.00XY00014.00CA00025.40SQ00026.30ZP00014.80RC00003.20XG00052.000109GFTS000F0001000101  ZP USD2NNNNNNNN04YVR  00000000370 SEA  00000000370 YYJ  00000000370 SEA  00000000370 0060GFPI000F00010001ADT0000000NYNNNYNNADT0000000NNNNNYNN01010076GFMM000F00010001010101300000020RATE USED IN EQU TOTAL IS ICH 1USD - 1USD0084GFMM000F00010001010101300000020RATE USED IN EQU TOTAL IS ICH 1CAD - 1.0500231USD0043GFMM000F00010001010000200000010VALID AS0072GFMM000F00010001010100600000020LAST DATE TO PURCHASE TICKET: 16APR110049GFMM000F00010001010102600000020E-TKT REQUIRED0082GFMM000F00010001010000000000020ADDITIONAL TAXES, SURCHARGES, OR FEES MAY APPLY0067GFJ5000F00010000010122NNNNNYNNNNNNNNNNNNNNNNYNNNNNNNNN0000010000067GFJ5000F00010000010225NNNNNYNNNNNNNNNNNNNNNNYNNNNNNNNN0000030000067GFJ5000F00010000010331NNNNNYNNNNNNNNNNNNNNNNYNNNNNNNNN0000030000067GFJ5000F00010000010430NNNNNYNNNNNNNNNNNNNNNNYNNNNNNNNN0000010000078GFJG002F00010000010225NNNNYNNNYYNNNNNN000000P   NNNNNNYNYYNNNNNN000000P   0078GFJG002F00010000010331NNNNYNNNYYNNNNNN000000P   NNNNNNYNYYNNNNNN000000P   0058GZXI000F0001000001020200051Y Y       000061Y N       00058GZXI000F0001000002020200011Y Y       000021Y N       00052GFRH000F00030000NNNNYNNNYNNNNNNNNNNNNNNNNNNNN4NN0092GFIS000F00040001DL 916420110526YVR  SEA  000YNNNNNNN08450940Y NNNNNNNN00000127NNNNNNNN  0152GFSR000F000600010101                 YA00A0MC        2PC       248.720010011E0012700000NNNNNNNNYA00A0MCYA00A0MC     N                           0.000205GFRI000F000400010101NNNNNNNNYVR  SEA  20110526DL YA00A0MC  0024872NUC200241000000000000000000YYNNNNNNNNNNNNNN       4040000404000000NNNNNNNN00000004E1000090000400309                    199             0092GFIS000F00040002AS 238420110526SEA  YYJ  000YNNNNNNN11101155Y NNNNNNNN00000098NNNNNNNN  0152GFSR000F000600010102                 YASR1                     248.720020012E0009800000NNNNNNNNYASR1   YASR1        N                           0.000205GFRI000F000400010102NNNNNNNNSEA  YYJ  20110526AS YASR1     0024872NUC200241000000000000000000YYNNNNNNNNNNNNNN       4040000404000000NNNNNNNN00000004A0210020000400152                    199          ADT0092GFIS000F00040003AS 238120110527YYJ  SEA  000YNNNNNNN06000638Y NNNNNNNN00000098NNNNNNNN  0152GFSR000F000600010103                 YASR1                     248.720030013E0009800000NNNNNNNNYASR1   YASR1        N                           0.000205GFRI000F000400010103NNNNNNNNYYJ  SEA  20110527AS YASR1     0024872NUC200241000000000000000000YYNNNNNNNNNNNNNN       4040000404000000NNNNNNNN00000004A0210020000400152                    199          ADT0092GFIS000F00040004DL 916520110527SEA  YVR  000YNNNNNNN09000950Y NNNNNNNN00000127NNNNNNNN  0152GFSR000F000600010104                 YA00A0MC        2PC       248.720040014E0012700000NNNNNNNNYA00A0MCYA00A0MC     N                           0.000205GFRI000F000400010104NNNNNNNNSEA  YVR  20110527DL YA00A0MC  0024872NUC200241000000000000000000YYNNNNNNNNNNNNNN       4040000404000000NNNNNNNN00000004E1000090000400309                    199             0232GFGQ000F0003000101G2011041620110526    CAD00000096600000000000002USD000001014002USD000001249752               YNNNNNNNNNNNNNNN10AY00005.00US00076.05XA00010.00XF00009.00XY00014.00CA00025.40SQ00026.30ZP00014.80RC00003.20XG00052.000109GFTS000F0001000101  ZP USD2NNNNNNNN04YVR  00000000370 SEA  00000000370 YYJ  00000000370 SEA  00000000370 0060GFPI000F00010001ADT0000000NYNNNYNNADT0000000NNNNNYNN01010076GFMM000F00010001010101300000020RATE USED IN EQU TOTAL IS ICH 1USD - 1USD0084GFMM000F00010001010101300000020RATE USED IN EQU TOTAL IS ICH 1CAD - 1.0500231USD0043GFMM000F00010001010000200000010VALID AS0072GFMM000F00010001010100600000020LAST DATE TO PURCHASE TICKET: 16APR110049GFMM000F00010001010102600000020E-TKT REQUIRED0082GFMM000F00010001010000000000020ADDITIONAL TAXES, SURCHARGES, OR FEES MAY APPLY0067GFJ5000F00010000010105NNNNNYNNNNNNNNNNNNNNNNYNNNNNNNNN0000010000067GFJ5000F00010000010208NNNNNYNNNNNNNNNNNNNNNNYNNNNNNNNN0000030000067GFJ5000F00010000010314NNNNNYNNNNNNNNNNNNNNNNYNNNNNNNNN0000030000067GFJ5000F00010000010413NNNNNYNNNNNNNNNNNNNNNNYNNNNNNNNN0000010000078GFJG002F00010000010208NNNNYNNNYYNNNNNN000000P   NNNNNNYNYYNNNNNN000000P   0078GFJG002F00010000010314NNNNYNNNYYNNNNNN000000P   NNNNNNYNYYNNNNNN000000P   0090GZXI000F0001000001020400011Y Y       000021Y N       000031Y Y       000041Y N       00058GZXI000F0001000002020200011Y Y       000021Y N       0
0052GFRH000F00030000NYNNYNNNNNNNNNNNNNNNNNNNNNNNNNNN0059GFMM000F00010000000004500005030SYSERR INVALID ITINERARY
0052GFRH000F00030000NYNNYNNNNNNNNNNNNNNNNNNNNNNNNNNN0059GFMM000F00010000000004500005030SYSERR INVALID ITINERARY
0052GFRH000F00030000NYNNYNNNNNNNNNNNNNNNNNNNNNNNNNNN0059GFMM000F00010000000004500005030SYSERR INVALID ITINERARY
0052GFRH000F00030000NYNNYNNNNNNNNNNNNNNNNNNNNNNNNNNN0059GFMM000F00010000000004500005030SYSERR INVALID ITINERARY
0052GFRH000F00030000NYNNYNNNNNNNNNNNNNNNNNNNNNNNNNNN0059GFMM000F00010000000004500005030SYSERR INVALID ITINERARY
0052GFRH000F00030000NYNNYNNNNNNNNNNNNNNNNNNNNNNNNNNN0059GFMM000F00010000000004500005030SYSERR INVALID ITINERARY
0052GFRH000F00030000NYNNYNNNNNNNNNNNNNNNNNNNNNNNNNNN0059GFMM000F00010000000004500005030SYSERR INVALID ITINERARY
0052GFRH000F00030000NNNNYNNNYNNNNNNNNNNNNNNNNNNNN4NN0092GFIS000F00040001US 713420110727MCI  ORD  000YNNNNNNN05450710Y NNNNNNNN00000404NNNNNNNN  0152GFSR000F000600010101                 Y               0PC      1099.530010011E0040400000NNNNNNNNY       Y            N  DAP 2600000              0.000058GFTL000F000100010101Y                                 0049GFMC000F000101000101FEU 1                    0039GFSU000F00010001010105000007906USD20039GFSU000F00010001010105000000930USD20039GFSU000F00010001010105000000930USD20060GFTK000F000300010101Y                                 N 0205GFRI000F000400010101NNNNNNNNMCI  ORD  20110727US Y         0109953USD201001860000000000000000YYNNNNNNNNNNNNNN       4040000404000000NNNNNNNN00000008E0010020000000201                    099             0092GFIS000F00040002AA 851 20110727ORD  MSP  000YNNNNNNN09001030Y NNNNNNNN00000341NNNNNNNN  0152GFSR000F000600010102                 Y               0PC       819.530020012E0034100000NNNNNNNNY       Y            N  DAP 2600000              0.000058GFTL000F000100010102Y                                 0049GFMC000F000101000201FEU 1                    0060GFTK000F000300010102Y                                 N 0205GFRI000F000400010102NNNNNNNNORD  MSP  20110727AA Y         0081953USD200819530000000000000000YYNNNNNNNNNNNNNN       4040000404000000NNNNNNNN0000000061010020000000001                    099             0092GFIS000F00040003AA 384220110730MSP  ORD  000YNNNNNNN06000720Y NNNNNNNN00000341NNNNNNNN  0152GFSR000F000600010103                 Y               0PC       819.530030013E0034100000NNNNNNNNY       Y            N  DAP 2600000              0.000058GFTL000F000100010103Y                                 0049GFMC000F000101000301FEU 1                    0060GFTK000F000300010103Y                                 N 0205GFRI000F000400010103NNNNNNNNMSP  ORD  20110730AA Y         0081953USD200819530000000000000000YYNNNNNNNNNNNNNN       4040000404000000NNNNNNNN0000000061010020000000001                    099             0092GFIS000F00040004UA 341 20110730ORD  MCI  000YNNNNNNN09471111Y NNNNNNNN00000404NNNNNNNN  0152GFSR000F000600010104                 YUA                       824.180040014E0040400000NNNNNNNNYUA     YUA          N  DAP 2600000              0.000058GFTL000F000100010104YUA                               0049GFMC000F000101000401FEU 1                    0039GFSU000F00010001010405000002791USD20039GFSU000F00010001010405000001860USD20060GFTK000F000300010104YUA                               N 0205GFRI000F000400010104NNNNNNNNORD  MCI  20110730UA YUA       0082418USD200777670000000000000000YYNNNNNNNNNNNNNN       4040000404000000NNNNNNNN00000000E0010020000000001                    099             0162GFGQ000F000300010192011072720110526    USD00000356277000000000002   000000000000USD000003854782               YNNNNNNNNNNNNNNN03AY00010.00US00267.21ZP00014.800248GFEQ000F0002000101YNNNNNNNNNNNNNNN   0000000000000   0000000000000   0000000000000   0000000000000   0000000000000   0000000000000   0000000000000   0000000000000   0000000000000                                DAP 2600000  DAP 2600000  NNNNNNNN0096GFJT000F000100010104NNYNNNNN01NNNNNNNNNNYNNNNN01NNNNNNNNNNYNNNNN01NNNNNNNNNNYNNNNN01NNNNNNNN0109GFTS000F0001000101  ZP USD2NNNNNNNN04MCI  00000000370 ORD  00000000370 MSP  00000000370 ORD  00000000370 0052GFTC004F0001000101ZPMCI  01ORD  02MSP  03ORD  040058GFTX000F0001000101      267.21        0.00        0.000058GFCI000F00010001010102NNNNNNNNNNNNNNNNNNNNNNNNNNNNNNNN0058GFCI000F00010001010202NNNNNNNNNNNNNNNNNNNNNNNNNNNNNNNN0058GFCI000F00010001010302NNNNNNNNNNNNNNNNNNNNNNNNNNNNNNNN0058GFCI000F00010001010402NNNNNNNNNNNNNNNNNNNNNNNNNNNNNNNN0060GFPI000F00010001ADT0000000NYNNNYNNADT0000000NNNNNNNN01010072GFMM000F00010001010100600000020LAST DATE TO PURCHASE TICKET: 27JUL110055GFMM000F00010001010117000000020TICKETING AGENCY DAP0061GFMM000F00010001010117100000020DEFAULT PLATING CARRIER US0049GFMM000F00010001010102600000020E-TKT REQUIRED0082GFMM000F00010001010000000000020ADDITIONAL TAXES, SURCHARGES, OR FEES MAY APPLY0277GFRR000F00030000NNNNNNNNNNNNNNNN00000002  NNNNNNNNNNNNNNNN000000    NNNNNNNNNNNNNNNNNNNNNNNNNNNNNNNN000000000    NNNNNNNNNNNNNNNN                                    1NNNNNNYNYYNNNNNN          NNNNNNNN       NNNNNNNNNYYNNNNYNNNNNNNYNNNNNNNN20110727000000000NNNNNNNNNNNNNNNN 0122GFFC000F0001000101MKC US CHI Q9.30Q9.30Q79.07 1001.86AA MSP 819.53AA CHI 819.53UA MKC Q27.91Q18.60 777.67USD3562.77END0216GFSF000F00010001011AMKC,1BUS,1ACHI,4BQ9.30Q9.30,4BQ79.07,4A1001.86,1CY,3E0101,1BAA,1AMSP,4A819.53,1CY,3E0102,1BAA,1ACHI,4A819.53,1CY,3E0103,1BUA,1AMKC,4BQ27.91,4BQ18.60,4A777.67,1CYUA,3E0104,1EUSD,4F3562.77,1FEND0027GZOP000F0001000101NNNNN0027GZEQ000F0001000101US NN0064GRFB004F00010101Y       0101Y       0102Y       0102YUA     0040GFBK000F0001000001Y YYYYNNNNNNNNNNNN0058GZXI000F0001000001020200431Y N |00197000441Y N |     00058GZXI000F0001000002020200661Y Y |     000671Y N |0004000052GFRH000F00030000NNNNYNNNYNNNNNNNNNNNNNNNNNNNN4NN0092GFIS000F00040001US 713420110727MCI  ORD  000YNNNNNNN05450710Y NNNNNNNN00000404NNNNNNNN  0152GFSR000F000600010101                 Y               0PC      1099.530010011E0040400000NNNNNNNNY       Y            N  DAP 2600000              0.000058GFTL000F000100010101Y                                 0049GFMC000F000101000101FEU 1                    0039GFSU000F00010001010105000007906USD20039GFSU000F00010001010105000000930USD20039GFSU000F00010001010105000000930USD20060GFTK000F000300010101Y                                 N 0205GFRI000F000400010101NNNNNNNNMCI  ORD  20110727US Y         0109953USD201001860000000000000000YYNNNNNNNNNNNNNN       4040000404000000NNNNNNNN00000008E0010020000000201                    099             0092GFIS000F00040002AA 851 20110727ORD  MSP  000YNNNNNNN09001030Y NNNNNNNN00000341NNNNNNNN  0152GFSR000F000600010102                 Y               0PC       819.530020012E0034100000NNNNNNNNY       Y            N  DAP 2600000              0.000058GFTL000F000100010102Y                                 0049GFMC000F000101000201FEU 1                    0060GFTK000F000300010102Y                                 N 0205GFRI000F000400010102NNNNNNNNORD  MSP  20110727AA Y         0081953USD200819530000000000000000YYNNNNNNNNNNNNNN       4040000404000000NNNNNNNN0000000061010020000000001                    099             0092GFIS000F00040003DL 173220110730MSP  ORD  000YNNNNNNN15301654Y NNNNNNNN00000341NNNNNNNN  0152GFSR000F000600010103                 Y0              2PC       786.980030013E0034100000NNNNNNNNY0      Y0           N  DAP 2600000              0.000058GFTL000F000100010103Y0                                0049GFMC000F000101000301FEU 1                    0039GFSU000F00010001010305000002791USD20039GFSU000F00010001010305000001860USD20060GFTK000F000300010103Y0                                N 0205GFRI000F000400010103NNNNNNNNMSP  ORD  20110730DL Y0        0078698USD200740470000000000000000YYNNNNNNNNNNNNNN       4040000404000000NNNNNNNN0000000B60000090000000501                    099             0092GFIS000F00040004UA 364320110730ORD  MCI  000YNNNNNNN18031927Y NNNNNNNN00000404NNNNNNNN  0152GFSR000F000600010104                 YUA                       824.180040014E0040400000NNNNNNNNYUA     YUA          N  DAP 2600000              0.000058GFTL000F000100010104YUA                               0049GFMC000F000101000401FEU 1                    0039GFSU000F00010001010405000002791USD20039GFSU000F00010001010405000001860USD20060GFTK000F000300010104YUA                               N 0205GFRI000F000400010104NNNNNNNNORD  MCI  20110730UA YUA       0082418USD200777670000000000000000YYNNNNNNNNNNNNNN       4040000404000000NNNNNNNN00000000E0010020000000001                    099             0162GFGQ000F000300010192011072720110526    USD00000353022000000000002   000000000000USD000003819802               YNNNNNNNNNNNNNNN03AY00010.00US00264.78ZP00014.800248GFEQ000F0002000101YNNNNNNNNNNNNNNN   0000000000000   0000000000000   0000000000000   0000000000000   0000000000000   0000000000000   0000000000000   0000000000000   0000000000000                                DAP 2600000  DAP 2600000  NNNNNNNN0096GFJT000F000100010104NNYNNNNN01NNNNNNNNNNYNNNNN01NNNNNNNNNNYNNNNN01NNNNNNNNNNYNNNNN01NNNNNNNN0109GFTS000F0001000101  ZP USD2NNNNNNNN04MCI  00000000370 ORD  00000000370 MSP  00000000370 ORD  00000000370 0052GFTC004F0001000101ZPMCI  01ORD  02MSP  03ORD  040058GFTX000F0001000101      264.78        0.00        0.000058GFCI000F00010001010102NNNNNNNNNNNNNNNNNNNNNNNNNNNNNNNN0058GFCI000F00010001010202NNNNNNNNNNNNNNNNNNNNNNNNNNNNNNNN0058GFCI000F00010001010302NNNNNNNNNNNNNNNNNNNNNNNNNNNNNNNN0058GFCI000F00010001010402NNNNNNNNNNNNNNNNNNNNNNNNNNNNNNNN0060GFPI000F00010001ADT0000000NYNNNYNNADT0000000NNNNNNNN01010072GFMM000F00010001010100600000020LAST DATE TO PURCHASE TICKET: 27JUL110055GFMM000F00010001010117000000020TICKETING AGENCY DAP0061GFMM000F00010001010117100000020DEFAULT PLATING CARRIER US0049GFMM000F00010001010102600000020E-TKT REQUIRED0082GFMM000F00010001010000000000020ADDITIONAL TAXES, SURCHARGES, OR FEES MAY APPLY0277GFRR000F00030000NNNNNNNNNNNNNNNN00000002  NNNNNNNNNNNNNNNN000000    NNNNNNNNNNNNNNNNNNNNNNNNNNNNNNNN000000000    NNNNNNNNNNNNNNNN                                    1NNNNNNYNYYNNNNNN          NNNNNNNN       NNNNNNNNNYYNNNNYNNNNNNNYNNNNNNNN20110727000000000NNNNNNNNNNNNNNNN 0135GFFC000F0001000101MKC US CHI Q9.30Q9.30Q79.07 1001.86AA MSP 819.53DL CHI Q27.91Q18.60 740.47UA MKC Q27.91Q18.60 777.67USD3530.22END0235GFSF000F00010001011AMKC,1BUS,1ACHI,4BQ9.30Q9.30,4BQ79.07,4A1001.86,1CY,3E0101,1BAA,1AMSP,4A819.53,1CY,3E0102,1BDL,1ACHI,4BQ27.91,4BQ18.60,4A740.47,1CY0,3E0103,1BUA,1AMKC,4BQ27.91,4BQ18.60,4A777.67,1CYUA,3E0104,1EUSD,4F3530.22,1FEND0027GZOP000F0001000101NNNNN0027GZEQ000F0001000101US NN0064GRFB004F00010101Y       0101Y       0102Y0      0102YUA     0040GFBK000F0001000001Y YYYYNNNNNNNNNNNN0058GZXI000F0001000001020200431Y N |00197000441Y N |     00122GZXI000F0001000002020600331Y Y |     000341Y N |00040000511Y Y |     000521Y N |00040000591Y Y |00895000601Y N |0004000052GFRH000F00030000NNNNYNNNYNNNNNNNNNNNNNNNNNNNN4NN0092GFIS000F00040001US 713420110727MCI  ORD  000YNNNNNNN05450710Y NNNNNNNN00000404NNNNNNNN  0152GFSR000F000600010101                 Y               0PC      1099.530010011E0040400000NNNNNNNNY       Y            N  DAP 2600000              0.000058GFTL000F000100010101Y                                 0049GFMC000F000101000101FEU 1                    0039GFSU000F00010001010105000007906USD20039GFSU000F00010001010105000000930USD20039GFSU000F00010001010105000000930USD20060GFTK000F000300010101Y                                 N 0205GFRI000F000400010101NNNNNNNNMCI  ORD  20110727US Y         0109953USD201001860000000000000000YYNNNNNNNNNNNNNN       4040000404000000NNNNNNNN00000008E0010020000000201                    099             0092GFIS000F00040002AA 851 20110727ORD  MSP  000YNNNNNNN09001030Y NNNNNNNN00000341NNNNNNNN  0152GFSR000F000600010102                 Y               0PC       819.530020012E0034100000NNNNNNNNY       Y            N  DAP 2600000              0.000058GFTL000F000100010102Y                                 0049GFMC000F000101000201FEU 1                    0060GFTK000F000300010102Y                                 N 0205GFRI000F000400010102NNNNNNNNORD  MSP  20110727AA Y         0081953USD200819530000000000000000YYNNNNNNNNNNNNNN       4040000404000000NNNNNNNN0000000061010020000000001                    099             0092GFIS000F00040003AA 384220110730MSP  ORD  000YNNNNNNN06000720Y NNNNNNNN00000341NNNNNNNN  0152GFSR000F000600010103                 Y               0PC       819.530030013E0034100000NNNNNNNNY       Y            N  DAP 2600000              0.000058GFTL000F000100010103Y                                 0049GFMC000F000101000301FEU 1                    0060GFTK000F000300010103Y                                 N 0205GFRI000F000400010103NNNNNNNNMSP  ORD  20110730AA Y         0081953USD200819530000000000000000YYNNNNNNNNNNNNNN       4040000404000000NNNNNNNN0000000061010020000000001                    099             0092GFIS000F00040004UA 341 20110730ORD  MCI  000YNNNNNNN09471111A NNNNNNNN00000404NNNNNNNN  0152GFSR000F000600010104                 HUAUP3                    375.810040014E0040400000NNNNNNNNHUAUP3  HUAUP3       N  DAP 2600000              0.000058GFTL000F000100010104HUAUP3                            0049GFMC000F000101000401FEU 1                    0039GFSU000F00010001010405000001860USD20060GFTK000F000300010104HUAUP3                            N 0205GFRI000F000400010104NNNNNNNNORD  MCI  20110730UA HUAUP3    0037581USD200357210000000000000000YYNNNNNNNNNNNNNN       4040000404000000NNNNNNNN00000008E1010020150000001                    099          ADT0162GFGQ000F000300010192011072720110526    USD00000311440000000000002   000000000000USD000003372782               YNNNNNNNNNNNNNNN03AY00010.00US00233.58ZP00014.800248GFEQ000F0002000101YNNNNNNNNNNNNNNN   0000000000000   0000000000000   0000000000000   0000000000000   0000000000000   0000000000000   0000000000000   0000000000000   0000000000000                                DAP 2600000  DAP 2600000  NNNNNNNN0096GFJT000F000100010104NNYNNNNN01NNNNNNNNNNYNNNNN01NNNNNNNNNNYNNNNN01NNNNNNNNNNYNNNNN01NNNNNNNN0109GFTS000F0001000101  ZP USD2NNNNNNNN04MCI  00000000370 ORD  00000000370 MSP  00000000370 ORD  00000000370 0052GFTC004F0001000101ZPMCI  01ORD  02MSP  03ORD  040058GFTX000F0001000101      233.58        0.00        0.000058GFCI000F00010001010102NNNNNNNNNNNNNNNNNNNNNNNNNNNNNNNN0058GFCI000F00010001010202NNNNNNNNNNNNNNNNNNNNNNNNNNNNNNNN0058GFCI000F00010001010302NNNNNNNNNNNNNNNNNNNNNNNNNNNNNNNN0058GFCI000F00010001010402NNNNNNNNNNNNNNNNNNNNNNNNNNNNNNNN0060GFPI000F00010001ADT0000000NYNNNYNNADT0000000NNNNNNNN01010072GFMM000F00010001010100600000020LAST DATE TO PURCHASE TICKET: 27JUL110055GFMM000F00010001010117000000020TICKETING AGENCY DAP0061GFMM000F00010001010117100000020DEFAULT PLATING CARRIER US0049GFMM000F00010001010102600000020E-TKT REQUIRED0082GFMM000F00010001010000000000020ADDITIONAL TAXES, SURCHARGES, OR FEES MAY APPLY0277GFRR000F00030000NNNNNNNNNNNNNNNN00000002  NNNNNNNNNNNNNNNN000000    NNNNNNNNNNNNNNNNNNNNNNNNNNNNNNNN000000000    NNNNNNNNNNNNNNNN                                    1NNNNNNYNYYNNNNNN          NNNNNNNN       NNNNNNNNNYYNNNNYNNNNNNNYNNNNNNNN20110727000000000NNNNNNNNNNNNNNNN 0116GFFC000F0001000101MKC US CHI Q9.30Q9.30Q79.07 1001.86AA MSP 819.53AA CHI 819.53UA MKC Q18.60 357.21USD3114.40END0210GFSF000F00010001011AMKC,1BUS,1ACHI,4BQ9.30Q9.30,4BQ79.07,4A1001.86,1CY,3E0101,1BAA,1AMSP,4A819.53,1CY,3E0102,1BAA,1ACHI,4A819.53,1CY,3E0103,1BUA,1AMKC,4BQ18.60,4A357.21,1CHUAUP3,3E0104,1EUSD,4F3114.40,1FEND0027GZOP000F0001000101NNNNN0027GZEQ000F0001000101US NN0064GRFB004F00010101Y       0101Y       0102Y       0102HUAUP3  0058GFBK000F0001000002Y YYYNNNNNNNNNNNNNA NNNYNNNNNNNNNNNN0058GZXI000F0001000001020200431Y N |00197000441Y N |     00058GZXI000F0001000002020200351Y Y |00036000361A N |     00052GFRH000F00030000NNNNYNNNYNNNNNNNNNNNNNNNNNNNN4NN0092GFIS000F00040001US 713420110727MCI  ORD  000YNNNNNNN05450710Y NNNNNNNN00000404NNNNNNNN  0152GFSR000F000600010101                 Y               0PC      1099.530010011E0040400000NNNNNNNNY       Y            N  DAP 2600000              0.000058GFTL000F000100010101Y                                 0049GFMC000F000101000101FEU 1                    0039GFSU000F00010001010105000007906USD20039GFSU000F00010001010105000000930USD20039GFSU000F00010001010105000000930USD20060GFTK000F000300010101Y                                 N 0205GFRI000F000400010101NNNNNNNNMCI  ORD  20110727US Y         0109953USD201001860000000000000000YYNNNNNNNNNNNNNN       4040000404000000NNNNNNNN00000008E0010020000000201                    099             0092GFIS000F00040002AA 851 20110727ORD  MSP  000YNNNNNNN09001030Y NNNNNNNN00000341NNNNNNNN  0152GFSR000F000600010102                 Y               0PC       819.530020012E0034100000NNNNNNNNY       Y            N  DAP 2600000              0.000058GFTL000F000100010102Y                                 0049GFMC000F000101000201FEU 1                    0060GFTK000F000300010102Y                                 N 0205GFRI000F000400010102NNNNNNNNORD  MSP  20110727AA Y         0081953USD200819530000000000000000YYNNNNNNNNNNNNNN       4040000404000000NNNNNNNN0000000061010020000000001                    099             0092GFIS000F00040003DL 173220110730MSP  ORD  000YNNNNNNN15301654Y NNNNNNNN00000341NNNNNNNN  0152GFSR000F000600010103                 Y0              2PC       786.980030013E0034100000NNNNNNNNY0      Y0           N  DAP 2600000              0.000058GFTL000F000100010103Y0                                0049GFMC000F000101000301FEU 1                    0039GFSU000F00010001010305000002791USD20039GFSU000F00010001010305000001860USD20060GFTK000F000300010103Y0                                N 0205GFRI000F000400010103NNNNNNNNMSP  ORD  20110730DL Y0        0078698USD200740470000000000000000YYNNNNNNNNNNNNNN       4040000404000000NNNNNNNN0000000B60000090000000501                    099             0092GFIS000F00040004UA 364320110730ORD  MCI  000YNNNNNNN18031927A NNNNNNNN00000404NNNNNNNN  0152GFSR000F000600010104                 HUAUP1                    375.810040014F0040400000NNNNNNNNHUAUP1  HUAUP1       N  DAP 2600000              0.000058GFTL000F000100010104HUAUP1                            0049GFMC000F000101000401FFU 1                    0039GFSU000F00010001010405000001860USD20060GFTK000F000300010104HUAUP1                            N 0205GFRI000F000400010104NNNNNNNNORD  MCI  20110730UA HUAUP1    0037581USD200357210000000000000000YYNNNNNNNNNNNNNN       4040000404000000NNNNNNNN00000008E1010020150000001                    099          ADT0162GFGQ000F000300010192011072720110526    USD00000308185000000000002   000000000000USD000003337802               YNNNNNNNNNNNNNNN03AY00010.00US00231.15ZP00014.800248GFEQ000F0002000101YNNNNNNNNNNNNNNN   0000000000000   0000000000000   0000000000000   0000000000000   0000000000000   0000000000000   0000000000000   0000000000000   0000000000000                                DAP 2600000  DAP 2600000  NNNNNNNN0096GFJT000F000100010104NNYNNNNN01NNNNNNNNNNYNNNNN01NNNNNNNNNNYNNNNN01NNNNNNNNNNYNNNNN01NNNNNNNN0109GFTS000F0001000101  ZP USD2NNNNNNNN04MCI  00000000370 ORD  00000000370 MSP  00000000370 ORD  00000000370 0052GFTC004F0001000101ZPMCI  01ORD  02MSP  03ORD  040058GFTX000F0001000101      231.15        0.00        0.000058GFCI000F00010001010102NNNNNNNNNNNNNNNNNNNNNNNNNNNNNNNN0058GFCI000F00010001010202NNNNNNNNNNNNNNNNNNNNNNNNNNNNNNNN0058GFCI000F00010001010302NNNNNNNNNNNNNNNNNNNNNNNNNNNNNNNN0058GFCI000F00010001010402NNNNNNNNNNNNNNNNNNNNNNNNNNNNNNNN0060GFPI000F00010001ADT0000000NYNNNYNNADT0000000NNNNNNNN01010072GFMM000F00010001010100600000020LAST DATE TO PURCHASE TICKET: 27JUL110055GFMM000F00010001010117000000020TICKETING AGENCY DAP0061GFMM000F00010001010117100000020DEFAULT PLATING CARRIER US0049GFMM000F00010001010102600000020E-TKT REQUIRED0082GFMM000F00010001010000000000020ADDITIONAL TAXES, SURCHARGES, OR FEES MAY APPLY0277GFRR000F00030000NNNNNNNNNNNNNNNN00000002  NNNNNNNNNNNNNNNN000000    NNNNNNNNNNNNNNNNNNNNNNNNNNNNNNNN000000000    NNNNNNNNNNNNNNNN                                    1NNNNNNYNYYNNNNNN          NNNNNNNN       NNNNNNNNNYYNNNNYNNNNNNNYNNNNNNNN20110727000000000NNNNNNNNNNNNNNNN 0129GFFC000F0001000101MKC US CHI Q9.30Q9.30Q79.07 1001.86AA MSP 819.53DL CHI Q27.91Q18.60 740.47UA MKC Q18.60 357.21USD3081.85END0229GFSF000F00010001011AMKC,1BUS,1ACHI,4BQ9.30Q9.30,4BQ79.07,4A1001.86,1CY,3E0101,1BAA,1AMSP,4A819.53,1CY,3E0102,1BDL,1ACHI,4BQ27.91,4BQ18.60,4A740.47,1CY0,3E0103,1BUA,1AMKC,4BQ18.60,4A357.21,1CHUAUP1,3E0104,1EUSD,4F3081.85,1FEND0027GZOP000F0001000101NNNNN0027GZEQ000F0001000101US NN0064GRFB004F00010101Y       0101Y       0102Y0      0102HUAUP1  0058GFBK000F0001000002Y YYYNNNNNNNNNNNNNA NNNYNNNNNNNNNNNN0058GZXI000F0001000001020200431Y N |00197000441Y N |     00058GZXI000F0001000002020200471Y Y |     000481A N |     00052GFRH000F00030000NNNNYNNNYNNNNNNNNNNNNNNNNNNNN4NN0092GFIS000F00040001US 713420110727MCI  ORD  000YNNNNNNN05450710Y NNNNNNNN00000404NNNNNNNN  0152GFSR000F000600010101                 Y               0PC      1099.530010011E0040400000NNNNNNNNY       Y            N  DAP 2600000              0.000058GFTL000F000100010101Y                                 0049GFMC000F000101000101FEU 1                    0039GFSU000F00010001010105000007906USD20039GFSU000F00010001010105000000930USD20039GFSU000F00010001010105000000930USD20060GFTK000F000300010101Y                                 N 0205GFRI000F000400010101NNNNNNNNMCI  ORD  20110727US Y         0109953USD201001860000000000000000YYNNNNNNNNNNNNNN       4040000404000000NNNNNNNN00000008E0010020000000201                    099             0092GFIS000F00040002AA 851 20110727ORD  MSP  000YNNNNNNN09001030Y NNNNNNNN00000341NNNNNNNN  0152GFSR000F000600010102                 Y               0PC       819.530020012E0034100000NNNNNNNNY       Y            N  DAP 2600000              0.000058GFTL000F000100010102Y                                 0049GFMC000F000101000201FEU 1                    0060GFTK000F000300010102Y                                 N 0205GFRI000F000400010102NNNNNNNNORD  MSP  20110727AA Y         0081953USD200819530000000000000000YYNNNNNNNNNNNNNN       4040000404000000NNNNNNNN0000000061010020000000001                    099             0092GFIS000F00040003AA 384220110730MSP  ORD  000YNNNNNNN06000720Y NNNNNNNN00000341NNNNNNNN  0152GFSR000F000600010103                 Y               0PC       819.530030013E0034100000NNNNNNNNY       Y            N  DAP 2600000              0.000058GFTL000F000100010103Y                                 0049GFMC000F000101000301FEU 1                    0060GFTK000F000300010103Y                                 N 0205GFRI000F000400010103NNNNNNNNMSP  ORD  20110730AA Y         0081953USD200819530000000000000000YYNNNNNNNNNNNNNN       4040000404000000NNNNNNNN0000000061010020000000001                    099             0092GFIS000F00040004CO 698220110730ORD  MCI  000YNNNNNNN09471111H NNNNNNNN00000404NNNNNNNN  0152GFSR000F000600010104        20110821 HA0KY                     196.280040014E0040400000NNNNNNNNHA0KY   HA0KY        N  DAP 2600000              0.000058GFTL000F000100010104HA0KY                             0049GFMC000F000101000401FER 1                    0060GFTK000F000300010104HA0KY                             S 0205GFRI000F000400010104NNNNNNNNORD  MCI  20110730CO HA0KY     0019628USD200196280000000000000000YYNNNNNNNNNNNNNN       F6D4000404000000NNNNNNNN00000004232000601W0000001                    099             0162GFGQ000F000300010192011072720110526    USD00000293487000000000002   000000000000USD000003179802               YNNNNNNNNNNNNNNN03AY00010.00US00220.13ZP00014.800248GFEQ000F0002000101YNNNNNNNNNNNNNNN   0000000000000   0000000000000   0000000000000   0000000000000   0000000000000   0000000000000   0000000000000   0000000000000   0000000000000                                DAP 2600000  DAP 2600000  NNNNNNNN0096GFJT000F000100010104NNYNNNNN01NNNNNNNNNNYNNNNN01NNNNNNNNNNYNNNNN01NNNNNNNNNNYNNNNN01NNNNNNNN0109GFTS000F0001000101  ZP USD2NNNNNNNN04MCI  00000000370 ORD  00000000370 MSP  00000000370 ORD  00000000370 0052GFTC004F0001000101ZPMCI  01ORD  02MSP  03ORD  040058GFTX000F0001000101      220.13        0.00        0.000058GFCI000F00010001010102NNNNNNNNNNNNNNNNNNNNNNNNNNNNNNNN0058GFCI000F00010001010202NNNNNNNNNNNNNNNNNNNNNNNNNNNNNNNN0058GFCI000F00010001010302NNNNNNNNNNNNNNNNNNNNNNNNNNNNNNNN0058GFCI000F00010001010402NNNNNNNNNNNNNNNNNNNNNNNNNNNNNNNN0060GFPI000F00010001ADT0000000NYNNNYNNADT0000000NNNNNNNN01010046GFMM000F0001000101000000000006004 NVA21AUG0072GFMM000F00010001010100600000020LAST DATE TO PURCHASE TICKET: 27JUL110055GFMM000F00010001010117000000020TICKETING AGENCY DAP0061GFMM000F00010001010117100000020DEFAULT PLATING CARRIER US0049GFMM000F00010001010102600000020E-TKT REQUIRED0082GFMM000F00010001010000000000020ADDITIONAL TAXES, SURCHARGES, OR FEES MAY APPLY0277GFRR000F00030000NNNNNNNNNNNNNNNN00000002  NNNNNNNNNNNNNNNN000000    NNNNNNNNNNNNNNNNNNNNNNNNNNNNNNNN000000000    NNNNNNNNNNNNNNNN                                    1NNNNNNYNYYNNNNNN          NNNNNNNN       NNNNNNNNNYYNNNNYNNNNNNNYNNNNNNNN20110727000000000NNNNNNNNNNNNNNNN 0109GFFC000F0001000101MKC US CHI Q9.30Q9.30Q79.07 1001.86AA MSP 819.53AA CHI 819.53CO MKC 196.28USD2934.87END0200GFSF000F00010001011AMKC,1BUS,1ACHI,4BQ9.30Q9.30,4BQ79.07,4A1001.86,1CY,3E0101,1BAA,1AMSP,4A819.53,1CY,3E0102,1BAA,1ACHI,4A819.53,1CY,3E0103,1BCO,1AMKC,4A196.28,1CHA0KY,3E0104,1EUSD,4F2934.87,1FEND0027GZOP000F0001000101NNNNN0027GZEQ000F0001000101US NY0064GRFB004F00010101Y       0101Y       0102Y       0102HA0KY   0058GFBK000F0001000002Y YYYNNNNNNNNNNNNNH NNNYNNNNNNNNNNNN0058GZXI000F0001000001020200431Y N |00197000441Y N |     00058GZXI000F0001000002020200371Y Y |00036000381H N |0013400052GFRH000F00030000NNNNYNNNYNNNNNNNNNNNNNNNNNNNN4NN0092GFIS000F00040001US 713420110727MCI  ORD  000YNNNNNNN05450710Y NNNNNNNN00000404NNNNNNNN  0152GFSR000F000600010101                 Y               0PC      1099.530010011E0040400000NNNNNNNNY       Y            N  DAP 2600000              0.000058GFTL000F000100010101Y                                 0049GFMC000F000101000101FEU 1                    0039GFSU000F00010001010105000007906USD20039GFSU000F00010001010105000000930USD20039GFSU000F00010001010105000000930USD20060GFTK000F000300010101Y                                 N 0205GFRI000F000400010101NNNNNNNNMCI  ORD  20110727US Y         0109953USD201001860000000000000000YYNNNNNNNNNNNNNN       4040000404000000NNNNNNNN00000008E0010020000000201                    099             0092GFIS000F00040002AA 851 20110727ORD  MSP  000YNNNNNNN09001030Y NNNNNNNN00000341NNNNNNNN  0152GFSR000F000600010102                 Y               0PC       819.530020012E0034100000NNNNNNNNY       Y            N  DAP 2600000              0.000058GFTL000F000100010102Y                                 0049GFMC000F000101000201FEU 1                    0060GFTK000F000300010102Y                                 N 0205GFRI000F000400010102NNNNNNNNORD  MSP  20110727AA Y         0081953USD200819530000000000000000YYNNNNNNNNNNNNNN       4040000404000000NNNNNNNN0000000061010020000000001                    099             0092GFIS000F00040003DL 207720110730MSP  ORD  000YNNNNNNN07000824Y NNNNNNNN00000341NNNNNNNN  0152GFSR000F000600010103                 Y0              2PC       786.980030013E0034100000NNNNNNNNY0      Y0           N  DAP 2600000              0.000058GFTL000F000100010103Y0                                0049GFMC000F000101000301FEU 1                    0039GFSU000F00010001010305000002791USD20039GFSU000F00010001010305000001860USD20060GFTK000F000300010103Y0                                N 0205GFRI000F000400010103NNNNNNNNMSP  ORD  20110730DL Y0        0078698USD200740470000000000000000YYNNNNNNNNNNNNNN       4040000404000000NNNNNNNN0000000B60000090000000501                    099             0092GFIS000F00040004CO 698220110730ORD  MCI  000YNNNNNNN09471111H NNNNNNNN00000404NNNNNNNN  0152GFSR000F000600010104        20110821 HA0KY                     196.280040014E0040400000NNNNNNNNHA0KY   HA0KY        N  DAP 2600000              0.000058GFTL000F000100010104HA0KY                             0049GFMC000F000101000401FER 1                    0060GFTK000F000300010104HA0KY                             S 0205GFRI000F000400010104NNNNNNNNORD  MCI  20110730CO HA0KY     0019628USD200196280000000000000000YYNNNNNNNNNNNNNN       F6D4000404000000NNNNNNNN00000004232000601W0000001                    099             0162GFGQ000F000300010192011072720110526    USD00000290232000000000002   000000000000USD000003144802               YNNNNNNNNNNNNNNN03AY00010.00US00217.68ZP00014.800248GFEQ000F0002000101YNNNNNNNNNNNNNNN   0000000000000   0000000000000   0000000000000   0000000000000   0000000000000   0000000000000   0000000000000   0000000000000   0000000000000                                DAP 2600000  DAP 2600000  NNNNNNNN0096GFJT000F000100010104NNYNNNNN01NNNNNNNNNNYNNNNN01NNNNNNNNNNYNNNNN01NNNNNNNNNNYNNNNN01NNNNNNNN0109GFTS000F0001000101  ZP USD2NNNNNNNN04MCI  00000000370 ORD  00000000370 MSP  00000000370 ORD  00000000370 0052GFTC004F0001000101ZPMCI  01ORD  02MSP  03ORD  040058GFTX000F0001000101      217.68        0.00        0.000058GFCI000F00010001010102NNNNNNNNNNNNNNNNNNNNNNNNNNNNNNNN0058GFCI000F00010001010202NNNNNNNNNNNNNNNNNNNNNNNNNNNNNNNN0058GFCI000F00010001010302NNNNNNNNNNNNNNNNNNNNNNNNNNNNNNNN0058GFCI000F00010001010402NNNNNNNNNNNNNNNNNNNNNNNNNNNNNNNN0060GFPI000F00010001ADT0000000NYNNNYNNADT0000000NNNNNNNN01010046GFMM000F0001000101000000000006004 NVA21AUG0072GFMM000F00010001010100600000020LAST DATE TO PURCHASE TICKET: 27JUL110055GFMM000F00010001010117000000020TICKETING AGENCY DAP0061GFMM000F00010001010117100000020DEFAULT PLATING CARRIER US0049GFMM000F00010001010102600000020E-TKT REQUIRED0082GFMM000F00010001010000000000020ADDITIONAL TAXES, SURCHARGES, OR FEES MAY APPLY0277GFRR000F00030000NNNNNNNNNNNNNNNN00000002  NNNNNNNNNNNNNNNN000000    NNNNNNNNNNNNNNNNNNNNNNNNNNNNNNNN000000000    NNNNNNNNNNNNNNNN                                    1NNNNNNYNYYNNNNNN          NNNNNNNN       NNNNNNNNNYYNNNNYNNNNNNNYNNNNNNNN20110727000000000NNNNNNNNNNNNNNNN 0122GFFC000F0001000101MKC US CHI Q9.30Q9.30Q79.07 1001.86AA MSP 819.53DL CHI Q27.91Q18.60 740.47CO MKC 196.28USD2902.32END0219GFSF000F00010001011AMKC,1BUS,1ACHI,4BQ9.30Q9.30,4BQ79.07,4A1001.86,1CY,3E0101,1BAA,1AMSP,4A819.53,1CY,3E0102,1BDL,1ACHI,4BQ27.91,4BQ18.60,4A740.47,1CY0,3E0103,1BCO,1AMKC,4A196.28,1CHA0KY,3E0104,1EUSD,4F2902.32,1FEND0027GZOP000F0001000101NNNNN0027GZEQ000F0001000101US NY0064GRFB004F00010101Y       0101Y       0102Y0      0102HA0KY   0058GFBK000F0001000002Y YYYNNNNNNNNNNNNNH NNNYNNNNNNNNNNNN0058GZXI000F0001000001020200431Y N |00197000441Y N |     00058GZXI000F0001000002020200391Y Y |     000401H N |001340
done
