0052GFRH000F00030000NYNNYNNNNNNNNNNNNNNNNNNNNNNNNNNN0055GFMM000F00010000000004500005030NO FARES FOR REQUEST
0052GFRH000F00030000NYNNYNNNNNNNNNNNNNNNNNNNNNNNNNNN0055GFMM000F00010000000004500005030NO FARES FOR REQUEST
0052GFRH000F00030000NYNNYNNNNNNNNNNNNNNNNNNNNNNNNNNN0055GFMM000F00010000000004500005030NO FARES FOR REQUEST
0052GFRH000F00030000NYNNYNNNNNNNNNNNNNNNNNNNNNNNNNNN0055GFMM000F00010000000004500005030NO FARES FOR REQUEST
0052GFRH000F00030000NNNNYNNNYNNNNNNNNNNNNNNNNNNNN4NN0093GFIS000F00050001DL 603620120330LGA  IAD  000YNNNNNNN16431815Y NNNNNNNN00000215NNNNNNNN  Y0152GFSR000F000600010101                XF               0PC            00010011F0021500000NNNNNNNNF       F            N  DAP 2600000              0.000058GFTL000F000100010101F                                 0049GFMC000F000101000101FFU 1                    0093GFIS000F00050002DL 150420120330IAD  ATL  000YNNNNNNN19152116F NNNNNNNN00000541NNNNNNNN  F0152GFSR000F000600010102                 F               0PC      1670.700010011F0054100000NNNNNNNNF       F            N  DAP 2600000              0.000058GFTL000F000100010102F                                 0049GFMC000F000101000201FFU 1                    0060GFTK000F000300010101F                                 N 0205GFRI000F000400010101NNNNNNNNLGA  ATL  20120330DL F         0167070USD201670700000000000000000YYNNNNNNNNNNNNNN       4040000404000000NNNNNNNN0000000860000020000000312                    099             0093GFIS000F00050003UA 612720120405ATL  IAD  000YNNNNNNN09151114B NNNNNNNN00000541NNNNNNNN  Y0152GFSR000F000600010103                XBUA             0PC            00020012E0054100000NNNNNNNNBUA     BUA          N  DAP 2600000              0.000058GFTL000F000100010103BUA                               0049GFMC000F000101000301FEU 1                    0093GFIS000F00050004UA 349720120405IAD  LGA  000YNNNNNNN12201340B NNNNNNNN00000215NNNNNNNN  Y0152GFSR000F000600010104                 BUA             0PC       559.070020012E0021500000NNNNNNNNBUA     BUA          N  DAP 2600000              0.000058GFTL000F000100010104BUA                               0049GFMC000F000101000401FEU 1                    0039GFSU000F00010001010405000001860USD20060GFTK000F000300010102BUA                               N 0205GFRI000F000400010102NNNNNNNNATL  LGA  20120405UA BUA       0055907USD200540470000000000000000YYNNNNNNNNNNNNNN       4040000404000000NNNNNNNN00000000E0200020000000729                    099             0172GFGQ000F000300010192012033020120229    USD00000222977000000000002   000000000000USD000002440202               YNNNNNNNNNNNNNNN04AY00010.00US00167.23XF00018.00ZP00015.200248GFEQ000F0002000101YNNNNNNNNNNNNNNN   0000000000000   0000000000000   0000000000000   0000000000000   0000000000000   0000000000000   0000000000000   0000000000000   0000000000000                                DAP 2600000  DAP 2600000  NNNNNNNN0060GFJT000F000100010102NNYNNNNN01NNNNNNNNNNYNNNNN01NNNNNNNN0109GFTS000F0001000101  ZP USD2NNNNNNNN04LGA  00000000380 IAD  00000000380 ATL  00000000380 IAD  00000000380 0052GFTC004F0001000101ZPLGA  01IAD  02ATL  03IAD  040052GFTC004F0001000101XFLGA  01IAD  02ATL  03IAD  040058GFTX000F0001000101      167.23        0.00        0.000074GFCI000F00020001010103NNNNNNNNNNNNNNNNNNNNNNNNNNNNNNNNNNNNNNNNNNNNNNNN0074GFCI000F00020001010203NNNNNNNNNNNNNNNNNNNNNNNNNNNNNNNNNNNNNNNNNNNNNNNN0060GFPI000F00010001ADT0000000NYNNNYNNADT0000000NNNNNYNN01010088GFPF000F000200000104LGA  00004.50USDIAD  00004.50USDATL  00004.50USDIAD  00004.50USD0049GFMM000F00010001010000200000010/-REFUNDABLE-/0072GFMM000F00010001010100600000020LAST DATE TO PURCHASE TICKET: 30MAR120055GFMM000F00010001010117000000020TICKETING AGENCY DAP0061GFMM000F00010001010117100000020DEFAULT PLATING CARRIER DL0049GFMM000F00010001010102600000020E-TKT REQUIRED0082GFMM000F00010001010000000000020ADDITIONAL TAXES, SURCHARGES, OR FEES MAY APPLY0277GFRR000F00030000NNNNNNNNNNNNNNNN00000001  NNNNNNNNNNNNNNNN000000    NNNNNNNNNNNNNNNNNNNNNNNNNNNNNNNN000000000    NNNNNNNNNNNNNNNN                                    1NNNNYNNNYYNNNNNN          NNNNNNNN       NNNNYNNNNYYNNNNNNNNNNNNNNNNNNNNN20120330000000000NNNNNNNNNNNNNNNN 0090GFFC000F0001000101NYC DL X/WAS DL ATL1670.70UA X/WAS UA NYC Q18.60 540.47USD2229.77END0159GFSF000F00010001011ANYC,1BDL,2AX/,1AWAS,1BDL,1AATL,4A1670.70,1CF,3E020102,1BUA,2AX/,1AWAS,1BUA,1ANYC,4BQ18.60,4A540.47,1CBUA,3E020304,1EUSD,4F2229.77,1FEND0027GZOP000F0001000101NNNNN0027GZEQ000F0001000101DL NN0040GRFB002F00010101F       0102BUA     0076GFBK000F0001000003Y YYNNNNNNNNNNNNNNF NYNNNNNNNNNNNNNNB NNYYNNNNNNNNNNNN0090GZXI000F0001000001020400551Y Y@|00755000561F N@|     000571Y Y@|00755000581F N@|     00058GZXI000F0001000002020200361B Y@|00162000371B N@|0058100052GFRH000F00030000NNNNYNNNYNNNNNNNNNNNNNNNNNNNN4NN0093GFIS000F00050001DL 603620120330LGA  IAD  000YNNNNNNN16431815Y NNNNNNNN00000215NNNNNNNN  Y0152GFSR000F000600010101                XF               0PC            00010011F0021500000NNNNNNNNF       F            N  DAP 2600000              0.000058GFTL000F000100010101F                                 0049GFMC000F000101000101FFU 1                    0093GFIS000F00050002DL 150420120330IAD  ATL  000YNNNNNNN19152116F NNNNNNNN00000541NNNNNNNN  F0152GFSR000F000600010102                 F               0PC      1670.700010011F0054100000NNNNNNNNF       F            N  DAP 2600000              0.000058GFTL000F000100010102F                                 0049GFMC000F000101000201FFU 1                    0060GFTK000F000300010101F                                 N 0205GFRI000F000400010101NNNNNNNNLGA  ATL  20120330DL F         0167070USD201670700000000000000000YYNNNNNNNNNNNNNN       4040000404000000NNNNNNNN0000000860000020000000312                    099             0093GFIS000F00050003UA 373020120405ATL  LGA  000YNNNNNNN11381535B NNNNNNNN00000756NNNNNNNN  Y0152GFSR000F000600010103                 BUA             0PC       559.070020012E0075600000NNNNNNNNBUA     BUA          N  DAP 2600000              0.000058GFTL000F000100010103BUA                               0049GFMC000F000101000301FEU 1                    0039GFSU000F00010001010305000001860USD20060GFTK000F000300010102BUA                               N 0205GFRI000F000400010102NNNNNNNNATL  LGA  20120405UA BUA       0055907USD200540470000000000000000YYNNNNNNNNNNNNNN       4040000404000000NNNNNNNN00000000E0200020000000729                    099             0172GFGQ000F000300010192012033020120229    USD00000222977000000000002   000000000000USD000002433202               YNNNNNNNNNNNNNNN04AY00007.50US00167.23XF00013.50ZP00015.200248GFEQ000F0002000101YNNNNNNNNNNNNNNN   0000000000000   0000000000000   0000000000000   0000000000000   0000000000000   0000000000000   0000000000000   0000000000000   0000000000000                                DAP 2600000  DAP 2600000  NNNNNNNN0060GFJT000F000100010102NNYNNNNN01NNNNNNNNNNYNNNNN01NNNNNNNN0109GFTS000F0001000101  ZP USD2NNNNNNNN04LGA  00000000380 IAD  00000000380 ATL  00000000380 IAD  00000000380 0052GFTC004F0001000101ZPLGA  01IAD  02ATL  03IAD  040045GFTC003F0001000101XFLGA  01IAD  02ATL  030058GFTX000F0001000101      167.23        0.00        0.000074GFCI000F00020001010103NNNNNNNNNNNNNNNNNNNNNNNNNNNNNNNNNNNNNNNNNNNNNNNN0074GFCI000F00020001010203NNNNNNNNNNNNNNNNNNNNNNNNNNNNNNNNNNNNNNNNNNNNNNNN0060GFPI000F00010001ADT0000000NYNNNYNNADT0000000NNNNNYNN01010072GFPF000F000200000103LGA  00004.50USDIAD  00004.50USDATL  00004.50USD0049GFMM000F00010001010000200000010/-REFUNDABLE-/0072GFMM000F00010001010100600000020LAST DATE TO PURCHASE TICKET: 30MAR120055GFMM000F00010001010117000000020TICKETING AGENCY DAP0061GFMM000F00010001010117100000020DEFAULT PLATING CARRIER DL0049GFMM000F00010001010102600000020E-TKT REQUIRED0082GFMM000F00010001010000000000020ADDITIONAL TAXES, SURCHARGES, OR FEES MAY APPLY0277GFRR000F00030000NNNNNNNNNNNNNNNN00000001  NNNNNNNNNNNNNNNN000000    NNNNNNNNNNNNNNNNNNNNNNNNNNNNNNNN000000000    NNNNNNNNNNNNNNNN                                    1NNNNYNNNYYNNNNNN          NNNNNNNN       NNNNYNNNNYYNNNNNNNNNNNNNNNNNNNNN20120330000000000NNNNNNNNNNNNNNNN 0081GFFC000F0001000101NYC DL X/WAS DL ATL1670.70UA NYC Q18.60 540.47USD2229.77END0141GFSF000F00010001011ANYC,1BDL,2AX/,1AWAS,1BDL,1AATL,4A1670.70,1CF,3E020102,1BUA,1ANYC,4BQ18.60,4A540.47,1CBUA,3E0103,1EUSD,4F2229.77,1FEND0027GZOP000F0001000101NNNNN0027GZEQ000F0001000101DL NN0040GRFB002F00010101F       0102BUA     0076GFBK000F0001000003Y YYNNNNNNNNNNNNNNF NYNNNNNNNNNNNNNNB NNYNNNNNNNNNNNNN0090GZXI000F0001000001020400551Y Y@|00755000561F N@|     000571Y Y@|00755000581F N@|     00042GZXI000F0001000002010100291B N@|0054800052GFRH000F00030000NNNNYNNNYNNNNNNNNNNNNNNNNNNNN4NN0093GFIS000F00050001DL 603620120330LGA  IAD  000YNNNNNNN16431815Y NNNNNNNN00000215NNNNNNNN  Y0152GFSR000F000600010101                XF               0PC            00010011F0021500000NNNNNNNNF       F            N  DAP 2600000              0.000058GFTL000F000100010101F                                 0049GFMC000F000101000101FFU 1                    0093GFIS000F00050002DL 150420120330IAD  ATL  000YNNNNNNN19152116F NNNNNNNN00000541NNNNNNNN  F0152GFSR000F000600010102                 F               0PC      1670.700010011F0054100000NNNNNNNNF       F            N  DAP 2600000              0.000058GFTL000F000100010102F                                 0049GFMC000F000101000201FFU 1                    0060GFTK000F000300010101F                                 N 0205GFRI000F000400010101NNNNNNNNLGA  ATL  20120330DL F         0167070USD201670700000000000000000YYNNNNNNNNNNNNNN       4040000404000000NNNNNNNN0000000860000020000000312                    099             0093GFIS000F00050003UA 411820120405ATL  CLE  000YNNNNNNN14251615S NNNNNNNN00000556NNNNNNNN  Y0152GFSR000F0006000101032012040520120405XSA21MN          0PC            00020012E0055600000NNNNNNNNSA21MN  SA21MN       N  DAP 2600000              0.000058GFTL000F000100010103SA21MN                            0049GFMC000F000101000301FSIP1                    0093GFIS000F00050004UA 430520120405CLE  LGA  000YNNNNNNN17001835S NNNNNNNN00000416NNNNNNNN  Y0152GFSR000F0006000101042012040520120405 SA21MN          0PC       163.720020012E0041600000NNNNNNNNSA21MN  SA21MN       N  DAP 2600000              0.000058GFTL000F000100010104SA21MN                            0049GFMC000F000101000401FSIP1                    0060GFTK000F000300010102SA21MN                            S 0205GFRI000F000400010102NNNNNNNNATL  LGA  20120405UA SA21MN    0016372USD200163720000000000000000YYNNNNNNNNNNNNNN       4040000404000000NNNNNNNN0000000471A00060M10000729                    099             0172GFGQ000F000300010192012030120120229    USD00000183442000000000002   000000000000USD000002015202               YNNNNNNNNNNNNYNN04AY00010.00US00137.58XF00018.00ZP00015.200248GFEQ000F0002000101YNNNNNNNNNNNNNNN   0000000000000   0000000000000   0000000000000   0000000000000   0000000000000   0000000000000   0000000000000   0000000000000   0000000000000                                DAP 2600000  DAP 2600000  NNNNNNNN0060GFJT000F000100010102NNYNNNNN01NNNNNNNNNNYNNNNN01NNNNNNNN0109GFTS000F0001000101  ZP USD2NNNNNNNN04LGA  00000000380 IAD  00000000380 ATL  00000000380 CLE  00000000380 0052GFTC004F0001000101ZPLGA  01IAD  02ATL  03CLE  040052GFTC004F0001000101XFLGA  01IAD  02ATL  03CLE  040058GFTX000F0001000101      137.58        0.00        0.000074GFCI000F00020001010103NNNNNNNNNNNNNNNNNNNNNNNNNNNNNNNNNNNNNNNNNNNNNNNN0074GFCI000F00020001010203NNNNNNNNNNNNNNNNNNNNNNNNNNNNNNNNNNNNNNNNNNNNNNNN0060GFPI000F00010001ADT0000000NYNNNYNNADT0000000NNNNNYNN01010088GFPF000F000200000104LGA  00004.50USDIAD  00004.50USDATL  00004.50USDCLE  00004.50USD0060GFMM000F00010001010000600000010NONREF/0VALUAFTDPT/CHGFEE0055GFMM000F0001000101000000000006003 NVB05APR/NVA05APR0055GFMM000F0001000101000000000006004 NVB05APR/NVA05APR0072GFMM000F00010001010100600000020LAST DATE TO PURCHASE TICKET: 01MAR120055GFMM000F00010001010117000000020TICKETING AGENCY DAP0061GFMM000F00010001010117100000020DEFAULT PLATING CARRIER DL0049GFMM000F00010001010102600000020E-TKT REQUIRED0082GFMM000F00010001010000000000020ADDITIONAL TAXES, SURCHARGES, OR FEES MAY APPLY0318GFRR000F00030000NNNNNNNNNNNNNNNN00000002  NNNNNNNNNNNNNNNN000000    NNNNNYNYNNYNYNNNNNNYNNYNNYNNNNNN021001021    NNNNNNNNNNNNNNNN                                    2NNYNYNNNYYNNNNNN000100P   NNNNNNNN       NNYNNNYNYYNNNNNN150.00DUSDNNNNNNNN       NNNNNYNNNYYYNNNYYNYNNNNNNNNNNNNN20120301000000000NNNNNNNNNNNNNNNN 0082GFFC000F0001000101NYC DL X/WAS DL ATL1670.70UA X/CLE UA NYC163.72USD1834.42END0153GFSF000F00010001011ANYC,1BDL,2AX/,1AWAS,1BDL,1AATL,4A1670.70,1CF,3E020102,1BUA,2AX/,1ACLE,1BUA,1ANYC,4A163.72,1CSA21MN,3E020304,1EUSD,4F1834.42,1FEND0027GZOP000F0001000101NNNNN0027GZEQ000F0001000101DL NY0040GRFB002F00010101F       0102SA21MN  0076GFBK000F0001000003Y YYNNNNNNNNNNNNNNF NYNNNNNNNNNNNNNNS NNYYNNNNNNNNNNNN0090GZXI000F0001000001020400551Y Y@|00755000561F N@|     000571Y Y@|00755000581F N@|     00058GZXI000F0001000002020200301S Y@|00069000311S N@|0006900052GFRH000F00030000NNNNYNNNYNNNNNNNNNNNNNNNNNNNN4NN0093GFIS000F00050001DL 603620120330LGA  IAD  000YNNNNNNN16431815Y NNNNNNNN00000215NNNNNNNN  Y0152GFSR000F000600010101                XF               0PC            00010011F0021500000NNNNNNNNF       F            N  DAP 2600000              0.000058GFTL000F000100010101F                                 0049GFMC000F000101000101FFU 1                    0093GFIS000F00050002DL 150420120330IAD  ATL  000YNNNNNNN19152116F NNNNNNNN00000541NNNNNNNN  F0152GFSR000F000600010102                 F               0PC      1670.700010011F0054100000NNNNNNNNF       F            N  DAP 2600000              0.000058GFTL000F000100010102F                                 0049GFMC000F000101000201FFU 1                    0060GFTK000F000300010101F                                 N 0205GFRI000F000400010101NNNNNNNNLGA  ATL  20120330DL F         0167070USD201670700000000000000000YYNNNNNNNNNNNNNN       4040000404000000NNNNNNNN0000000860000020000000312                    099             0093GFIS000F00050003US 148020120405ATL  CLT  000YNNNNNNN14001516K NNNNNNNN00000228NNNNNNNN  Y0152GFSR000F0006000101032012040520120405XKXAVNA4P        0PC            00020012E0022800000NNNNNNNNKXAVNA4PKXAVNA4P     N  DAP 2600000              0.000058GFTL000F000100010103KXAVNA4P                          0049GFMC000F000101000301FSIP1                    0093GFIS000F00050004US 149020120405CLT  LGA  000YNNNNNNN16151810K NNNNNNNN00000538NNNNNNNN  Y0152GFSR000F0006000101042012040520120405 KXAVNA4P        0PC       132.090020012E0053800000NNNNNNNNKXAVNA4PKXAVNA4P     N  DAP 2600000              0.000058GFTL000F000100010104KXAVNA4P                          0049GFMC000F000101000401FSIP1                    0039GFSU000F00010001010405000001860USD20060GFTK000F000300010102KXAVNA4P                          S 0205GFRI000F000400010102NNNNNNNNATL  LGA  20120405US KXAVNA4P  0013209USD200113490000000000000000YYNNNNNNNNNNNNNN       C340000404000000NNNNNNNN0000002EF2A00025250000700                    099          ADT0172GFGQ000F000300010192012030120120229    USD00000180279000000000002   000000000000USD000001979702               YNNNNNNNNNNNNYNN04AY00010.00US00135.21XF00016.50ZP00015.200248GFEQ000F0002000101YNNNNNNNNNNNNNNN   0000000000000   0000000000000   0000000000000   0000000000000   0000000000000   0000000000000   0000000000000   0000000000000   0000000000000                                DAP 2600000  DAP 2600000  NNNNNNNN0060GFJT000F000100010102NNYNNNNN01NNNNNNNNNNYNNNNN01NNNNNNNN0109GFTS000F0001000101  ZP USD2NNNNNNNN04LGA  00000000380 IAD  00000000380 ATL  00000000380 CLT  00000000380 0052GFTC004F0001000101ZPLGA  01IAD  02ATL  03CLT  040052GFTC004F0001000101XFLGA  01IAD  02ATL  03CLT  040058GFTX000F0001000101      135.21        0.00        0.000074GFCI000F00020001010103NNNNNNNNNNNNNNNNNNNNNNNNNNNNNNNNNNNNNNNNNNNNNNNN0074GFCI000F00020001010203NNNNNNNNNNNNNNNNNNNNNNNNNNNNNNNNNNNNNNNNNNNNNNNN0060GFPI000F00010001ADT0000000NYNNNYNNADT0000000NNNNNYNN01010088GFPF000F000200000104LGA  00004.50USDIAD  00004.50USDATL  00004.50USDCLT  00003.00USD0058GFMM000F00010001010000600000010STNDBY/CHG FEE/NO RFND/0049GFMM000F00010001010000600000010CXL BY FLT DT/0055GFMM000F0001000101000000000006003 NVB05APR/NVA05APR0055GFMM000F0001000101000000000006004 NVB05APR/NVA05APR0072GFMM000F00010001010100600000020LAST DATE TO PURCHASE TICKET: 01MAR120055GFMM000F00010001010117000000020TICKETING AGENCY DAP0061GFMM000F00010001010117100000020DEFAULT PLATING CARRIER DL0049GFMM000F00010001010102600000020E-TKT REQUIRED0082GFMM000F00010001010000000000020ADDITIONAL TAXES, SURCHARGES, OR FEES MAY APPLY0318GFRR000F00030000NNNNNNNNNNNNNNNN00000002  NNNNNNNNNNNNNNNN000000    NNNNNYNYNNYNYNNNNNNYNNYNNYNNNNNN021001021    NNNNNNNNNNNNNNNN                                    2NNYNYNNNYYNNNNNN000100P   NNNNNNNN       NNYNNNYNYYNNNNNN150.00DUSDNNNNNNNN       NNYNYYYNYYYYNNYNYNYNNNNNNNNNNNNN20120301000001860NNNNNNNNNNNNNNNN 0089GFFC000F0001000101NYC DL X/WAS DL ATL1670.70US X/CLT Q18.60 US NYC113.49USD1802.79END0164GFSF000F00010001011ANYC,1BDL,2AX/,1AWAS,1BDL,1AATL,4A1670.70,1CF,3E020102,1BUS,2AX/,1ACLT,4BQ18.60,1BUS,1ANYC,4A113.49,1CKXAVNA4P,3E020304,1EUSD,4F1802.79,1FEND0027GZOP000F0001000101NNNNN0027GZEQ000F0001000101DL NY0040GRFB002F00010101F       0102KXAVNA4P0076GFBK000F0001000003Y YYNNNNNNNNNNNNNNF NYNNNNNNNNNNNNNNK NNYYNNNNNNNNNNNN0090GZXI000F0001000001020400551Y Y@|00755000561F N@|     000571Y Y@|00755000581F N@|     00090GZXI000F0001000002020400321K Y@|     000331K N@|     000341K Y@|     000351K N@|     00052GFRH000F00030000NNNNYNNNYNNNNNNNNNNNNNNNNNNNN4NN0093GFIS000F00050001DL 609520120330LGA  IAD  000YNNNNNNN08251004U NNNNNNNN00000215NNNNNNNN  Y0152GFSR000F0006000101012012033020120330 UA07A0NP        0PC        70.700010011E0021500000NNNNNNNNUA07A0NPUA07A0NP     N  DAP 2600000              0.000058GFTL000F000100010101UA07A0NP                          0049GFMC000F000101000101FSIP1                    0060GFTK000F000300010101UA07A0NP                          S 0205GFRI000F000400010101NNNNNNNNLGA  IAD  20120330DL UA07A0NP  0007070USD200070700000000000000000YYNNNNNNNNNNNNNN       4040000404000000NNNNNNNN0000000F60A00090560000511                    099             0093GFIS000F00050002UA 374720120330IAD  ATL  000YNNNNNNN12411438V NNNNNNNN00000541NNNNNNNN  Y0152GFSR000F0006000101022012033020120330 VA14MN          0PC       129.300020012E0054100000NNNNNNNNVA14MN  VA14MN       N  DAP 2600000              0.000058GFTL000F000100010102VA14MN                            0049GFMC000F000101000201FSIP1                    0060GFTK000F000300010102VA14MN                            S 0205GFRI000F000400010102NNNNNNNNIAD  ATL  20120330UA VA14MN    0012930USD200129300000000000000000YYNNNNNNNNNNNNNN       4040000404000000NNNNNNNN0000000471A00060M10000001                    099             0093GFIS000F00050003UA 612720120405ATL  IAD  000YNNNNNNN09151114B NNNNNNNN00000541NNNNNNNN  Y0152GFSR000F000600010103                XBUA             0PC            00030013E0054100000NNNNNNNNBUA     BUA          N  DAP 2600000              0.000058GFTL000F000100010103BUA                               0049GFMC000F000101000301FEU 1                    0093GFIS000F00050004UA 349720120405IAD  LGA  000YNNNNNNN12201340B NNNNNNNN00000215NNNNNNNN  Y0152GFSR000F000600010104                 BUA             0PC       559.070030013E0021500000NNNNNNNNBUA     BUA          N  DAP 2600000              0.000058GFTL000F000100010104BUA                               0049GFMC000F000101000401FEU 1                    0039GFSU000F00010001010405000001860USD20060GFTK000F000300010103BUA                               N 0205GFRI000F000400010103NNNNNNNNATL  LGA  20120405UA BUA       0055907USD200540470000000000000000YYNNNNNNNNNNNNNN       4040000404000000NNNNNNNN00000000E0200020000000729                    099             0172GFGQ000F000300010192012030120120229    USD00000075907000000000002   000000000000USD000000859202               YNNNNNNNNNNNNYNN04AY00010.00US00056.93XF00018.00ZP00015.200248GFEQ000F0002000101YNNNNNNNNNNNNNNN   0000000000000   0000000000000   0000000000000   0000000000000   0000000000000   0000000000000   0000000000000   0000000000000   0000000000000                                DAP 2600000  DAP 2600000  NNNNNNNN0078GFJT000F000100010103NNYNNNNN01NNNNNNNNNNYNNNNN01NNNNNNNNNNYNNNNN01NNNNNNNN0109GFTS000F0001000101  ZP USD2NNNNNNNN04LGA  00000000380 IAD  00000000380 ATL  00000000380 IAD  00000000380 0052GFTC004F0001000101ZPLGA  01IAD  02ATL  03IAD  040052GFTC004F0001000101XFLGA  01IAD  02ATL  03IAD  040058GFTX000F0001000101       56.93        0.00        0.000058GFCI000F00020001010102NNNNNNNNNNNNNNNNNNNNNNNNNNNNNNNN0058GFCI000F00020001010202NNNNNNNNNNNNNNNNNNNNNNNNNNNNNNNN0074GFCI000F00020001010303NNNNNNNNNNNNNNNNNNNNNNNNNNNNNNNNNNNNNNNNNNNNNNNN0060GFPI000F00010001ADT0000000NYNNNYNNADT0000000NNNNNYNN01010088GFPF000F000200000104LGA  00004.50USDIAD  00004.50USDATL  00004.50USDIAD  00004.50USD0049GFMM000F00010001010000600000010NONREF/PENALTY0042GFMM000F00010001010000600000010APPLIES0060GFMM000F00010001010000600000010NONREF/0VALUAFTDPT/CHGFEE0049GFMM000F00010001010000200000010/-REFUNDABLE-/0055GFMM000F0001000101000000000006001 NVB30MAR/NVA30MAR0055GFMM000F0001000101000000000006002 NVB30MAR/NVA30MAR0072GFMM000F00010001010100600000020LAST DATE TO PURCHASE TICKET: 01MAR120055GFMM000F00010001010117000000020TICKETING AGENCY DAP0061GFMM000F00010001010117100000020DEFAULT PLATING CARRIER DL0049GFMM000F00010001010102600000020E-TKT REQUIRED0082GFMM000F00010001010000000000020ADDITIONAL TAXES, SURCHARGES, OR FEES MAY APPLY0318GFRR000F00030000NNNNNNNNNNNNNNNN00000002  NNNNNNNNNNNNNNNN000000    NNNNNYNYNNYNYNNNNNNYNNYNNYNNNNNN014001014    NNNNNNNNNNNNNNNN                                    2NNYNYNNNYYNNNNNN000100P   NNNNNNNN       NNYNNNYNYYNNNNNN150.00DUSDNNNNNNNN       NNNNNYNNNYYYNNNYYNYNNNNNNNNNNNNN20120301000000000NNNNNNNNNNNNNNNN 0090GFFC000F0001000101NYC DL WAS70.70UA ATL129.30UA X/WAS UA NYC Q18.60 540.47USD759.07END0181GFSF000F00010001011ANYC,1BDL,1AWAS,4A70.70,1CUA07A0NP,3E0101,1BUA,1AATL,4A129.30,1CVA14MN,3E0102,1BUA,2AX/,1AWAS,1BUA,1ANYC,4BQ18.60,4A540.47,1CBUA,3E020304,1EUSD,4F759.07,1FEND0027GZOP000F0001000101NNNNN0027GZEQ000F0001000101DL NY0052GRFB003F00010101UA07A0NP0101VA14MN  0102BUA     0076GFBK000F0001000003U YNNNNNNNNNNNNNNNV NYNNNNNNNNNNNNNNB NNYYNNNNNNNNNNNN0058GZXI000F0001000001020200371U Y@|00755000381V N@|0054800058GZXI000F0001000002020200361B Y@|00162000371B N@|0058100052GFRH000F00030000NNNNYNNNYNNNNNNNNNNNNNNNNNNNN4NN0093GFIS000F00050001DL 609520120330LGA  IAD  000YNNNNNNN08251004U NNNNNNNN00000215NNNNNNNN  Y0152GFSR000F0006000101012012033020120330 UA07A0NP        0PC        70.700010011E0021500000NNNNNNNNUA07A0NPUA07A0NP     N  DAP 2600000              0.000058GFTL000F000100010101UA07A0NP                          0049GFMC000F000101000101FSIP1                    0060GFTK000F000300010101UA07A0NP                          S 0205GFRI000F000400010101NNNNNNNNLGA  IAD  20120330DL UA07A0NP  0007070USD200070700000000000000000YYNNNNNNNNNNNNNN       4040000404000000NNNNNNNN0000000F60A00090560000511                    099             0093GFIS000F00050002UA 374720120330IAD  ATL  000YNNNNNNN12411438V NNNNNNNN00000541NNNNNNNN  Y0152GFSR000F0006000101022012033020120330 VA14MN          0PC       129.300020012E0054100000NNNNNNNNVA14MN  VA14MN       N  DAP 2600000              0.000058GFTL000F000100010102VA14MN                            0049GFMC000F000101000201FSIP1                    0060GFTK000F000300010102VA14MN                            S 0205GFRI000F000400010102NNNNNNNNIAD  ATL  20120330UA VA14MN    0012930USD200129300000000000000000YYNNNNNNNNNNNNNN       4040000404000000NNNNNNNN0000000471A00060M10000001                    099             0093GFIS000F00050003UA 373020120405ATL  LGA  000YNNNNNNN11381535B NNNNNNNN00000756NNNNNNNN  Y0152GFSR000F000600010103                 BUA             0PC       559.070030013E0075600000NNNNNNNNBUA     BUA          N  DAP 2600000              0.000058GFTL000F000100010103BUA                               0049GFMC000F000101000301FEU 1                    0039GFSU000F00010001010305000001860USD20060GFTK000F000300010103BUA                               N 0205GFRI000F000400010103NNNNNNNNATL  LGA  20120405UA BUA       0055907USD200540470000000000000000YYNNNNNNNNNNNNNN       4040000404000000NNNNNNNN00000000E0200020000000729                    099             0172GFGQ000F000300010192012030120120229    USD00000075907000000000002   000000000000USD000000852202               YNNNNNNNNNNNNYNN04AY00007.50US00056.93XF00013.50ZP00015.200248GFEQ000F0002000101YNNNNNNNNNNNNNNN   0000000000000   0000000000000   0000000000000   0000000000000   0000000000000   0000000000000   0000000000000   0000000000000   0000000000000                                DAP 2600000  DAP 2600000  NNNNNNNN0078GFJT000F000100010103NNYNNNNN01NNNNNNNNNNYNNNNN01NNNNNNNNNNYNNNNN01NNNNNNNN0109GFTS000F0001000101  ZP USD2NNNNNNNN04LGA  00000000380 IAD  00000000380 ATL  00000000380 IAD  00000000380 0052GFTC004F0001000101ZPLGA  01IAD  02ATL  03IAD  040045GFTC003F0001000101XFLGA  01IAD  02ATL  030058GFTX000F0001000101       56.93        0.00        0.000058GFCI000F00020001010102NNNNNNNNNNNNNNNNNNNNNNNNNNNNNNNN0058GFCI000F00020001010202NNNNNNNNNNNNNNNNNNNNNNNNNNNNNNNN0074GFCI000F00020001010303NNNNNNNNNNNNNNNNNNNNNNNNNNNNNNNNNNNNNNNNNNNNNNNN0060GFPI000F00010001ADT0000000NYNNNYNNADT0000000NNNNNYNN01010072GFPF000F000200000103LGA  00004.50USDIAD  00004.50USDATL  00004.50USD0049GFMM000F00010001010000600000010NONREF/PENALTY0042GFMM000F00010001010000600000010APPLIES0060GFMM000F00010001010000600000010NONREF/0VALUAFTDPT/CHGFEE0049GFMM000F00010001010000200000010/-REFUNDABLE-/0055GFMM000F0001000101000000000006001 NVB30MAR/NVA30MAR0055GFMM000F0001000101000000000006002 NVB30MAR/NVA30MAR0072GFMM000F00010001010100600000020LAST DATE TO PURCHASE TICKET: 01MAR120055GFMM000F00010001010117000000020TICKETING AGENCY DAP0061GFMM000F00010001010117100000020DEFAULT PLATING CARRIER DL0049GFMM000F00010001010102600000020E-TKT REQUIRED0082GFMM000F00010001010000000000020ADDITIONAL TAXES, SURCHARGES, OR FEES MAY APPLY0318GFRR000F00030000NNNNNNNNNNNNNNNN00000002  NNNNNNNNNNNNNNNN000000    NNNNNYNYNNYNYNNNNNNYNNYNNYNNNNNN014001014    NNNNNNNNNNNNNNNN                                    2NNYNYNNNYYNNNNNN000100P   NNNNNNNN       NNYNNNYNYYNNNNNN150.00DUSDNNNNNNNN       NNNNNYNNNYYYNNNYYNYNNNNNNNNNNNNN20120301000000000NNNNNNNNNNNNNNNN 0081GFFC000F0001000101NYC DL WAS70.70UA ATL129.30UA NYC Q18.60 540.47USD759.07END0163GFSF000F00010001011ANYC,1BDL,1AWAS,4A70.70,1CUA07A0NP,3E0101,1BUA,1AATL,4A129.30,1CVA14MN,3E0102,1BUA,1ANYC,4BQ18.60,4A540.47,1CBUA,3E0103,1EUSD,4F759.07,1FEND0027GZOP000F0001000101NNNNN0027GZEQ000F0001000101DL NY0052GRFB003F00010101UA07A0NP0101VA14MN  0102BUA     0076GFBK000F0001000003U YNNNNNNNNNNNNNNNV NYNNNNNNNNNNNNNNB NNYNNNNNNNNNNNNN0058GZXI000F0001000001020200371U Y@|00755000381V N@|0054800042GZXI000F0001000002010100291B N@|0054800052GFRH000F00030000NNNNYNNNYNNNNNNNNNNNNNNNNNNNN4NN0093GFIS000F00050001DL 609520120330LGA  IAD  000YNNNNNNN08251004U NNNNNNNN00000215NNNNNNNN  Y0152GFSR000F0006000101012012033020120330 UA07A0NP        0PC        70.700010011E0021500000NNNNNNNNUA07A0NPUA07A0NP     N  DAP 2600000              0.000058GFTL000F000100010101UA07A0NP                          0049GFMC000F000101000101FSIP1                    0060GFTK000F000300010101UA07A0NP                          S 0205GFRI000F000400010101NNNNNNNNLGA  IAD  20120330DL UA07A0NP  0007070USD200070700000000000000000YYNNNNNNNNNNNNNN       4040000404000000NNNNNNNN0000000F60A00090560000511                    099             0093GFIS000F00050002UA 374720120330IAD  ATL  000YNNNNNNN12411438W NNNNNNNN00000541NNNNNNNN  Y0152GFSR000F0006000101022012033020120330 WA14MN          0PC       120.000020012E0054100000NNNNNNNNWA14MN  WA14MN       N  DAP 2600000              0.000058GFTL000F000100010102WA14MN                            0049GFMC000F000101000201FSIP1                    0060GFTK000F000300010102WA14MN                            S 0205GFRI000F000400010102NNNNNNNNIAD  ATL  20120330UA WA14MN    0012000USD200120000000000000000000YYNNNNNNNNNNNNNN       4040000404000000NNNNNNNN0000000471A00060M10000001                    099             0093GFIS000F00050003UA 612720120405ATL  IAD  000YNNNNNNN09151114B NNNNNNNN00000541NNNNNNNN  Y0152GFSR000F000600010103                XBUA             0PC            00030013E0054100000NNNNNNNNBUA     BUA          N  DAP 2600000              0.000058GFTL000F000100010103BUA                               0049GFMC000F000101000301FEU 1                    0093GFIS000F00050004UA 349720120405IAD  LGA  000YNNNNNNN12201340B NNNNNNNN00000215NNNNNNNN  Y0152GFSR000F000600010104                 BUA             0PC       559.070030013E0021500000NNNNNNNNBUA     BUA          N  DAP 2600000              0.000058GFTL000F000100010104BUA                               0049GFMC000F000101000401FEU 1                    0039GFSU000F00010001010405000001860USD20060GFTK000F000300010103BUA                               N 0205GFRI000F000400010103NNNNNNNNATL  LGA  20120405UA BUA       0055907USD200540470000000000000000YYNNNNNNNNNNNNNN       4040000404000000NNNNNNNN00000000E0200020000000729                    099             0172GFGQ000F000300010192012030120120229    USD00000074977000000000002   000000000000USD000000849202               YNNNNNNNNNNNNYNN04AY00010.00US00056.23XF00018.00ZP00015.200248GFEQ000F0002000101YNNNNNNNNNNNNNNN   0000000000000   0000000000000   0000000000000   0000000000000   0000000000000   0000000000000   0000000000000   0000000000000   0000000000000                                DAP 2600000  DAP 2600000  NNNNNNNN0078GFJT000F000100010103NNYNNNNN01NNNNNNNNNNYNNNNN01NNNNNNNNNNYNNNNN01NNNNNNNN0109GFTS000F0001000101  ZP USD2NNNNNNNN04LGA  00000000380 IAD  00000000380 ATL  00000000380 IAD  00000000380 0052GFTC004F0001000101ZPLGA  01IAD  02ATL  03IAD  040052GFTC004F0001000101XFLGA  01IAD  02ATL  03IAD  040058GFTX000F0001000101       56.23        0.00        0.000058GFCI000F00020001010102NNNNNNNNNNNNNNNNNNNNNNNNNNNNNNNN0058GFCI000F00020001010202NNNNNNNNNNNNNNNNNNNNNNNNNNNNNNNN0074GFCI000F00020001010303NNNNNNNNNNNNNNNNNNNNNNNNNNNNNNNNNNNNNNNNNNNNNNNN0060GFPI000F00010001ADT0000000NYNNNYNNADT0000000NNNNNYNN01010088GFPF000F000200000104LGA  00004.50USDIAD  00004.50USDATL  00004.50USDIAD  00004.50USD0049GFMM000F00010001010000600000010NONREF/PENALTY0042GFMM000F00010001010000600000010APPLIES0060GFMM000F00010001010000600000010NONREF/0VALUAFTDPT/CHGFEE0049GFMM000F00010001010000200000010/-REFUNDABLE-/0055GFMM000F0001000101000000000006001 NVB30MAR/NVA30MAR0055GFMM000F0001000101000000000006002 NVB30MAR/NVA30MAR0072GFMM000F00010001010100600000020LAST DATE TO PURCHASE TICKET: 01MAR120055GFMM000F00010001010117000000020TICKETING AGENCY DAP0061GFMM000F00010001010117100000020DEFAULT PLATING CARRIER DL0049GFMM000F00010001010102600000020E-TKT REQUIRED0082GFMM000F00010001010000000000020ADDITIONAL TAXES, SURCHARGES, OR FEES MAY APPLY0318GFRR000F00030000NNNNNNNNNNNNNNNN00000002  NNNNNNNNNNNNNNNN000000    NNNNNYNYNNYNYNNNNNNYNNYNNYNNNNNN014001014    NNNNNNNNNNNNNNNN                                    2NNYNYNNNYYNNNNNN000100P   NNNNNNNN       NNYNNNYNYYNNNNNN150.00DUSDNNNNNNNN       NNNNNYNNNYYYNNNYYNYNNNNNNNNNNNNN20120301000000000NNNNNNNNNNNNNNNN 0090GFFC000F0001000101NYC DL WAS70.70UA ATL120.00UA X/WAS UA NYC Q18.60 540.47USD749.77END0181GFSF000F00010001011ANYC,1BDL,1AWAS,4A70.70,1CUA07A0NP,3E0101,1BUA,1AATL,4A120.00,1CWA14MN,3E0102,1BUA,2AX/,1AWAS,1BUA,1ANYC,4BQ18.60,4A540.47,1CBUA,3E020304,1EUSD,4F749.77,1FEND0027GZOP000F0001000101NNNNN0027GZEQ000F0001000101DL NY0052GRFB003F00010101UA07A0NP0101WA14MN  0102BUA     0076GFBK000F0001000003U YNNNNNNNNNNNNNNNW NYNNNNNNNNNNNNNNB NNYYNNNNNNNNNNNN0090GZXI000F0001000001020400291U Y@|00755000301W N@|00548000311U Y@|00755000321W N@|0016200058GZXI000F0001000002020200361B Y@|00162000371B N@|0058100052GFRH000F00030000NNNNYNNNYNNNNNNNNNNNNNNNNNNNN4NN0093GFIS000F00050001DL 609520120330LGA  IAD  000YNNNNNNN08251004U NNNNNNNN00000215NNNNNNNN  Y0152GFSR000F0006000101012012033020120330 UA07A0NP        0PC        70.700010011E0021500000NNNNNNNNUA07A0NPUA07A0NP     N  DAP 2600000              0.000058GFTL000F000100010101UA07A0NP                          0049GFMC000F000101000101FSIP1                    0060GFTK000F000300010101UA07A0NP                          S 0205GFRI000F000400010101NNNNNNNNLGA  IAD  20120330DL UA07A0NP  0007070USD200070700000000000000000YYNNNNNNNNNNNNNN       4040000404000000NNNNNNNN0000000F60A00090560000511                    099             0093GFIS000F00050002UA 374720120330IAD  ATL  000YNNNNNNN12411438W NNNNNNNN00000541NNNNNNNN  Y0152GFSR000F0006000101022012033020120330 WA14MN          0PC       120.000020012E0054100000NNNNNNNNWA14MN  WA14MN       N  DAP 2600000              0.000058GFTL000F000100010102WA14MN                            0049GFMC000F000101000201FSIP1                    0060GFTK000F000300010102WA14MN                            S 0205GFRI000F000400010102NNNNNNNNIAD  ATL  20120330UA WA14MN    0012000USD200120000000000000000000YYNNNNNNNNNNNNNN       4040000404000000NNNNNNNN0000000471A00060M10000001                    099             0093GFIS000F00050003UA 373020120405ATL  LGA  000YNNNNNNN11381535B NNNNNNNN00000756NNNNNNNN  Y0152GFSR000F000600010103                 BUA             0PC       559.070030013E0075600000NNNNNNNNBUA     BUA          N  DAP 2600000              0.000058GFTL000F000100010103BUA                               0049GFMC000F000101000301FEU 1                    0039GFSU000F00010001010305000001860USD20060GFTK000F000300010103BUA                               N 0205GFRI000F000400010103NNNNNNNNATL  LGA  20120405UA BUA       0055907USD200540470000000000000000YYNNNNNNNNNNNNNN       4040000404000000NNNNNNNN00000000E0200020000000729                    099             0172GFGQ000F000300010192012030120120229    USD00000074977000000000002   000000000000USD000000842202               YNNNNNNNNNNNNYNN04AY00007.50US00056.23XF00013.50ZP00015.200248GFEQ000F0002000101YNNNNNNNNNNNNNNN   0000000000000   0000000000000   0000000000000   0000000000000   0000000000000   0000000000000   0000000000000   0000000000000   0000000000000                                DAP 2600000  DAP 2600000  NNNNNNNN0078GFJT000F000100010103NNYNNNNN01NNNNNNNNNNYNNNNN01NNNNNNNNNNYNNNNN01NNNNNNNN0109GFTS000F0001000101  ZP USD2NNNNNNNN04LGA  00000000380 IAD  00000000380 ATL  00000000380 IAD  00000000380 0052GFTC004F0001000101ZPLGA  01IAD  02ATL  03IAD  040045GFTC003F0001000101XFLGA  01IAD  02ATL  030058GFTX000F0001000101       56.23        0.00        0.000058GFCI000F00020001010102NNNNNNNNNNNNNNNNNNNNNNNNNNNNNNNN0058GFCI000F00020001010202NNNNNNNNNNNNNNNNNNNNNNNNNNNNNNNN0074GFCI000F00020001010303NNNNNNNNNNNNNNNNNNNNNNNNNNNNNNNNNNNNNNNNNNNNNNNN0060GFPI000F00010001ADT0000000NYNNNYNNADT0000000NNNNNYNN01010072GFPF000F000200000103LGA  00004.50USDIAD  00004.50USDATL  00004.50USD0049GFMM000F00010001010000600000010NONREF/PENALTY0042GFMM000F00010001010000600000010APPLIES0060GFMM000F00010001010000600000010NONREF/0VALUAFTDPT/CHGFEE0049GFMM000F00010001010000200000010/-REFUNDABLE-/0055GFMM000F0001000101000000000006001 NVB30MAR/NVA30MAR0055GFMM000F0001000101000000000006002 NVB30MAR/NVA30MAR0072GFMM000F00010001010100600000020LAST DATE TO PURCHASE TICKET: 01MAR120055GFMM000F00010001010117000000020TICKETING AGENCY DAP0061GFMM000F00010001010117100000020DEFAULT PLATING CARRIER DL0049GFMM000F00010001010102600000020E-TKT REQUIRED0082GFMM000F00010001010000000000020ADDITIONAL TAXES, SURCHARGES, OR FEES MAY APPLY0318GFRR000F00030000NNNNNNNNNNNNNNNN00000002  NNNNNNNNNNNNNNNN000000    NNNNNYNYNNYNYNNNNNNYNNYNNYNNNNNN014001014    NNNNNNNNNNNNNNNN                                    2NNYNYNNNYYNNNNNN000100P   NNNNNNNN       NNYNNNYNYYNNNNNN150.00DUSDNNNNNNNN       NNNNNYNNNYYYNNNYYNYNNNNNNNNNNNNN20120301000000000NNNNNNNNNNNNNNNN 0081GFFC000F0001000101NYC DL WAS70.70UA ATL120.00UA NYC Q18.60 540.47USD749.77END0163GFSF000F00010001011ANYC,1BDL,1AWAS,4A70.70,1CUA07A0NP,3E0101,1BUA,1AATL,4A120.00,1CWA14MN,3E0102,1BUA,1ANYC,4BQ18.60,4A540.47,1CBUA,3E0103,1EUSD,4F749.77,1FEND0027GZOP000F0001000101NNNNN0027GZEQ000F0001000101DL NY0052GRFB003F00010101UA07A0NP0101WA14MN  0102BUA     0076GFBK000F0001000003U YNNNNNNNNNNNNNNNW NYNNNNNNNNNNNNNNB NNYNNNNNNNNNNNNN0090GZXI000F0001000001020400291U Y@|00755000301W N@|00548000311U Y@|00755000321W N@|0016200042GZXI000F0001000002010100291B N@|0054800052GFRH000F00030000NNNNYNNNYNNNNNNNNNNNNNNNNNNNN4NN0093GFIS000F00050001DL 609520120330LGA  IAD  000YNNNNNNN08251004U NNNNNNNN00000215NNNNNNNN  Y0152GFSR000F0006000101012012033020120330 UA07A0NP        0PC        70.700010011E0021500000NNNNNNNNUA07A0NPUA07A0NP     N  DAP 2600000              0.000058GFTL000F000100010101UA07A0NP                          0049GFMC000F000101000101FSIP1                    0060GFTK000F000300010101UA07A0NP                          S 0205GFRI000F000400010101NNNNNNNNLGA  IAD  20120330DL UA07A0NP  0007070USD200070700000000000000000YYNNNNNNNNNNNNNN       4040000404000000NNNNNNNN0000000F60A00090560000511                    099             0093GFIS000F00050002UA 374720120330IAD  ATL  000YNNNNNNN12411438V NNNNNNNN00000541NNNNNNNN  Y0152GFSR000F0006000101022012033020120330 VA14MN          0PC       129.300020012E0054100000NNNNNNNNVA14MN  VA14MN       N  DAP 2600000              0.000058GFTL000F000100010102VA14MN                            0049GFMC000F000101000201FSIP1                    0060GFTK000F000300010102VA14MN                            S 0205GFRI000F000400010102NNNNNNNNIAD  ATL  20120330UA VA14MN    0012930USD200129300000000000000000YYNNNNNNNNNNNNNN       4040000404000000NNNNNNNN0000000471A00060M10000001                    099             0093GFIS000F00050003UA 411820120405ATL  CLE  000YNNNNNNN14251615S NNNNNNNN00000556NNNNNNNN  Y0152GFSR000F0006000101032012040520120405XSA21MN          0PC            00030013E0055600000NNNNNNNNSA21MN  SA21MN       N  DAP 2600000              0.000058GFTL000F000100010103SA21MN                            0049GFMC000F000101000301FSIP1                    0093GFIS000F00050004UA 430520120405CLE  LGA  000YNNNNNNN17001835S NNNNNNNN00000416NNNNNNNN  Y0152GFSR000F0006000101042012040520120405 SA21MN          0PC       163.720030013E0041600000NNNNNNNNSA21MN  SA21MN       N  DAP 2600000              0.000058GFTL000F000100010104SA21MN                            0049GFMC000F000101000401FSIP1                    0060GFTK000F000300010103SA21MN                            S 0205GFRI000F000400010103NNNNNNNNATL  LGA  20120405UA SA21MN    0016372USD200163720000000000000000YYNNNNNNNNNNNNNN       4040000404000000NNNNNNNN0000000471A00060M10000729                    099             0172GFGQ000F000300010192012030120120229    USD00000036372000000000002   000000000000USD000000434202               YNNNNNNNNNNNNYNN04AY00010.00US00027.28XF00018.00ZP00015.200248GFEQ000F0002000101YNNNNNNNNNNNNNNN   0000000000000   0000000000000   0000000000000   0000000000000   0000000000000   0000000000000   0000000000000   0000000000000   0000000000000                                DAP 2600000  DAP 2600000  NNNNNNNN0078GFJT000F000100010103NNYNNNNN01NNNNNNNNNNYNNNNN01NNNNNNNNNNYNNNNN01NNNNNNNN0109GFTS000F0001000101  ZP USD2NNNNNNNN04LGA  00000000380 IAD  00000000380 ATL  00000000380 CLE  00000000380 0052GFTC004F0001000101ZPLGA  01IAD  02ATL  03CLE  040052GFTC004F0001000101XFLGA  01IAD  02ATL  03CLE  040058GFTX000F0001000101       27.28        0.00        0.000058GFCI000F00020001010102NNNNNNNNNNNNNNNNNNNNNNNNNNNNNNNN0058GFCI000F00020001010202NNNNNNNNNNNNNNNNNNNNNNNNNNNNNNNN0074GFCI000F00020001010303NNNNNNNNNNNNNNNNNNNNNNNNNNNNNNNNNNNNNNNNNNNNNNNN0060GFPI000F00010001ADT0000000NYNNNYNNADT0000000NNNNNYNN01010088GFPF000F000200000104LGA  00004.50USDIAD  00004.50USDATL  00004.50USDCLE  00004.50USD0049GFMM000F00010001010000600000010NONREF/PENALTY0042GFMM000F00010001010000600000010APPLIES0060GFMM000F00010001010000600000010NONREF/0VALUAFTDPT/CHGFEE0055GFMM000F0001000101000000000006001 NVB30MAR/NVA30MAR0055GFMM000F0001000101000000000006002 NVB30MAR/NVA30MAR0055GFMM000F0001000101000000000006003 NVB05APR/NVA05APR0055GFMM000F0001000101000000000006004 NVB05APR/NVA05APR0072GFMM000F00010001010100600000020LAST DATE TO PURCHASE TICKET: 01MAR120055GFMM000F00010001010117000000020TICKETING AGENCY DAP0061GFMM000F00010001010117100000020DEFAULT PLATING CARRIER DL0049GFMM000F00010001010102600000020E-TKT REQUIRED0082GFMM000F00010001010000000000020ADDITIONAL TAXES, SURCHARGES, OR FEES MAY APPLY0318GFRR000F00030000NNNNNNNNNNNNNNNN00000003  NNNNNNNNNNNNNNNN000000    NNNNNYNYNNYNYNNNNNNYNNYNNYNNNNNN021001021    NNNNNNNNNNNNNNNN                                    2NNYNYNNNYYNNNNNN000100P   NNNNNNNN       NNYNNNYNYYNNNNNN150.00DUSDNNNNNNNN       NNNNNYNNNYYYNNNYYNYNNNNNNNNNNNNN20120301000000000NNNNNNNNNNNNNNNN 0082GFFC000F0001000101NYC DL WAS70.70UA ATL129.30UA X/CLE UA NYC163.72USD363.72END0175GFSF000F00010001011ANYC,1BDL,1AWAS,4A70.70,1CUA07A0NP,3E0101,1BUA,1AATL,4A129.30,1CVA14MN,3E0102,1BUA,2AX/,1ACLE,1BUA,1ANYC,4A163.72,1CSA21MN,3E020304,1EUSD,4F363.72,1FEND0027GZOP000F0001000101NNNNN0027GZEQ000F0001000101DL NY0052GRFB003F00010101UA07A0NP0101VA14MN  0102SA21MN  0076GFBK000F0001000003U YNNNNNNNNNNNNNNNV NYNNNNNNNNNNNNNNS NNYYNNNNNNNNNNNN0058GZXI000F0001000001020200371U Y@|00755000381V N@|0054800058GZXI000F0001000002020200301S Y@|00069000311S N@|0006900052GFRH000F00030000NNNNYNNNYNNNNNNNNNNNNNNNNNNNN4NN0093GFIS000F00050001DL 609520120330LGA  IAD  000YNNNNNNN08251004U NNNNNNNN00000215NNNNNNNN  Y0152GFSR000F0006000101012012033020120330 UA07A0NP        0PC        70.700010011E0021500000NNNNNNNNUA07A0NPUA07A0NP     N  DAP 2600000              0.000058GFTL000F000100010101UA07A0NP                          0049GFMC000F000101000101FSIP1                    0060GFTK000F000300010101UA07A0NP                          S 0205GFRI000F000400010101NNNNNNNNLGA  IAD  20120330DL UA07A0NP  0007070USD200070700000000000000000YYNNNNNNNNNNNNNN       4040000404000000NNNNNNNN0000000F60A00090560000511                    099             0093GFIS000F00050002UA 374720120330IAD  ATL  000YNNNNNNN12411438W NNNNNNNN00000541NNNNNNNN  Y0152GFSR000F0006000101022012033020120330 WA14MN          0PC       120.000020012E0054100000NNNNNNNNWA14MN  WA14MN       N  DAP 2600000              0.000058GFTL000F000100010102WA14MN                            0049GFMC000F000101000201FSIP1                    0060GFTK000F000300010102WA14MN                            S 0205GFRI000F000400010102NNNNNNNNIAD  ATL  20120330UA WA14MN    0012000USD200120000000000000000000YYNNNNNNNNNNNNNN       4040000404000000NNNNNNNN0000000471A00060M10000001                    099             0093GFIS000F00050003UA 411820120405ATL  CLE  000YNNNNNNN14251615S NNNNNNNN00000556NNNNNNNN  Y0152GFSR000F0006000101032012040520120405XSA21MN          0PC            00030013E0055600000NNNNNNNNSA21MN  SA21MN       N  DAP 2600000              0.000058GFTL000F000100010103SA21MN                            0049GFMC000F000101000301FSIP1                    0093GFIS000F00050004UA 430520120405CLE  LGA  000YNNNNNNN17001835S NNNNNNNN00000416NNNNNNNN  Y0152GFSR000F0006000101042012040520120405 SA21MN          0PC       163.720030013E0041600000NNNNNNNNSA21MN  SA21MN       N  DAP 2600000              0.000058GFTL000F000100010104SA21MN                            0049GFMC000F000101000401FSIP1                    0060GFTK000F000300010103SA21MN                            S 0205GFRI000F000400010103NNNNNNNNATL  LGA  20120405UA SA21MN    0016372USD200163720000000000000000YYNNNNNNNNNNNNNN       4040000404000000NNNNNNNN0000000471A00060M10000729                    099             0172GFGQ000F000300010192012030120120229    USD00000035442000000000002   000000000000USD000000424202               YNNNNNNNNNNNNYNN04AY00010.00US00026.58XF00018.00ZP00015.200248GFEQ000F0002000101YNNNNNNNNNNNNNNN   0000000000000   0000000000000   0000000000000   0000000000000   0000000000000   0000000000000   0000000000000   0000000000000   0000000000000                                DAP 2600000  DAP 2600000  NNNNNNNN0078GFJT000F000100010103NNYNNNNN01NNNNNNNNNNYNNNNN01NNNNNNNNNNYNNNNN01NNNNNNNN0109GFTS000F0001000101  ZP USD2NNNNNNNN04LGA  00000000380 IAD  00000000380 ATL  00000000380 CLE  00000000380 0052GFTC004F0001000101ZPLGA  01IAD  02ATL  03CLE  040052GFTC004F0001000101XFLGA  01IAD  02ATL  03CLE  040058GFTX000F0001000101       26.58        0.00        0.000058GFCI000F00020001010102NNNNNNNNNNNNNNNNNNNNNNNNNNNNNNNN0058GFCI000F00020001010202NNNNNNNNNNNNNNNNNNNNNNNNNNNNNNNN0074GFCI000F00020001010303NNNNNNNNNNNNNNNNNNNNNNNNNNNNNNNNNNNNNNNNNNNNNNNN0060GFPI000F00010001ADT0000000NYNNNYNNADT0000000NNNNNYNN01010088GFPF000F000200000104LGA  00004.50USDIAD  00004.50USDATL  00004.50USDCLE  00004.50USD0049GFMM000F00010001010000600000010NONREF/PENALTY0042GFMM000F00010001010000600000010APPLIES0060GFMM000F00010001010000600000010NONREF/0VALUAFTDPT/CHGFEE0055GFMM000F0001000101000000000006001 NVB30MAR/NVA30MAR0055GFMM000F0001000101000000000006002 NVB30MAR/NVA30MAR0055GFMM000F0001000101000000000006003 NVB05APR/NVA05APR0055GFMM000F0001000101000000000006004 NVB05APR/NVA05APR0072GFMM000F00010001010100600000020LAST DATE TO PURCHASE TICKET: 01MAR120055GFMM000F00010001010117000000020TICKETING AGENCY DAP0061GFMM000F00010001010117100000020DEFAULT PLATING CARRIER DL0049GFMM000F00010001010102600000020E-TKT REQUIRED0082GFMM000F00010001010000000000020ADDITIONAL TAXES, SURCHARGES, OR FEES MAY APPLY0318GFRR000F00030000NNNNNNNNNNNNNNNN00000003  NNNNNNNNNNNNNNNN000000    NNNNNYNYNNYNYNNNNNNYNNYNNYNNNNNN021001021    NNNNNNNNNNNNNNNN                                    2NNYNYNNNYYNNNNNN000100P   NNNNNNNN       NNYNNNYNYYNNNNNN150.00DUSDNNNNNNNN       NNNNNYNNNYYYNNNYYNYNNNNNNNNNNNNN20120301000000000NNNNNNNNNNNNNNNN 0082GFFC000F0001000101NYC DL WAS70.70UA ATL120.00UA X/CLE UA NYC163.72USD354.42END0175GFSF000F00010001011ANYC,1BDL,1AWAS,4A70.70,1CUA07A0NP,3E0101,1BUA,1AATL,4A120.00,1CWA14MN,3E0102,1BUA,2AX/,1ACLE,1BUA,1ANYC,4A163.72,1CSA21MN,3E020304,1EUSD,4F354.42,1FEND0027GZOP000F0001000101NNNNN0027GZEQ000F0001000101DL NY0052GRFB003F00010101UA07A0NP0101WA14MN  0102SA21MN  0076GFBK000F0001000003U YNNNNNNNNNNNNNNNW NYNNNNNNNNNNNNNNS NNYYNNNNNNNNNNNN0090GZXI000F0001000001020400291U Y@|00755000301W N@|00548000311U Y@|00755000321W N@|0016200058GZXI000F0001000002020200301S Y@|00069000311S N@|0006900052GFRH000F00030000NNNNYNNNYNNNNNNNNNNNNNNNNNNNN4NN0093GFIS000F00050001DL 609520120330LGA  IAD  000YNNNNNNN08251004U NNNNNNNN00000215NNNNNNNN  Y0152GFSR000F0006000101012012033020120330 UA07A0NP        0PC        70.700010011E0021500000NNNNNNNNUA07A0NPUA07A0NP     N  DAP 2600000              0.000058GFTL000F000100010101UA07A0NP                          0049GFMC000F000101000101FSIP1                    0060GFTK000F000300010101UA07A0NP                          S 0205GFRI000F000400010101NNNNNNNNLGA  IAD  20120330DL UA07A0NP  0007070USD200070700000000000000000YYNNNNNNNNNNNNNN       4040000404000000NNNNNNNN0000000F60A00090560000511                    099             0093GFIS000F00050002UA 374720120330IAD  ATL  000YNNNNNNN12411438V NNNNNNNN00000541NNNNNNNN  Y0152GFSR000F0006000101022012033020120330 VA14MN          0PC       129.300020012E0054100000NNNNNNNNVA14MN  VA14MN       N  DAP 2600000              0.000058GFTL000F000100010102VA14MN                            0049GFMC000F000101000201FSIP1                    0060GFTK000F000300010102VA14MN                            S 0205GFRI000F000400010102NNNNNNNNIAD  ATL  20120330UA VA14MN    0012930USD200129300000000000000000YYNNNNNNNNNNNNNN       4040000404000000NNNNNNNN0000000471A00060M10000001                    099             0093GFIS000F00050003US 148020120405ATL  CLT  000YNNNNNNN14001516K NNNNNNNN00000228NNNNNNNN  Y0152GFSR000F0006000101032012040520120405XKXAVNA4P        0PC            00030013E0022800000NNNNNNNNKXAVNA4PKXAVNA4P     N  DAP 2600000              0.000058GFTL000F000100010103KXAVNA4P                          0049GFMC000F000101000301FSIP1                    0093GFIS000F00050004US 149020120405CLT  LGA  000YNNNNNNN16151810K NNNNNNNN00000538NNNNNNNN  Y0152GFSR000F0006000101042012040520120405 KXAVNA4P        0PC       132.090030013E0053800000NNNNNNNNKXAVNA4PKXAVNA4P     N  DAP 2600000              0.000058GFTL000F000100010104KXAVNA4P                          0049GFMC000F000101000401FSIP1                    0039GFSU000F00010001010405000001860USD20060GFTK000F000300010103KXAVNA4P                          S 0205GFRI000F000400010103NNNNNNNNATL  LGA  20120405US KXAVNA4P  0013209USD200113490000000000000000YYNNNNNNNNNNNNNN       C340000404000000NNNNNNNN0000002EF2A00025250000700                    099          ADT0172GFGQ000F000300010192012030120120229    USD00000033209000000000002   000000000000USD000000398702               YNNNNNNNNNNNNYNN04AY00010.00US00024.91XF00016.50ZP00015.200248GFEQ000F0002000101YNNNNNNNNNNNNNNN   0000000000000   0000000000000   0000000000000   0000000000000   0000000000000   0000000000000   0000000000000   0000000000000   0000000000000                                DAP 2600000  DAP 2600000  NNNNNNNN0078GFJT000F000100010103NNYNNNNN01NNNNNNNNNNYNNNNN01NNNNNNNNNNYNNNNN01NNNNNNNN0109GFTS000F0001000101  ZP USD2NNNNNNNN04LGA  00000000380 IAD  00000000380 ATL  00000000380 CLT  00000000380 0052GFTC004F0001000101ZPLGA  01IAD  02ATL  03CLT  040052GFTC004F0001000101XFLGA  01IAD  02ATL  03CLT  040058GFTX000F0001000101       24.91        0.00        0.000058GFCI000F00020001010102NNNNNNNNNNNNNNNNNNNNNNNNNNNNNNNN0058GFCI000F00020001010202NNNNNNNNNNNNNNNNNNNNNNNNNNNNNNNN0074GFCI000F00020001010303NNNNNNNNNNNNNNNNNNNNNNNNNNNNNNNNNNNNNNNNNNNNNNNN0060GFPI000F00010001ADT0000000NYNNNYNNADT0000000NNNNNYNN01010088GFPF000F000200000104LGA  00004.50USDIAD  00004.50USDATL  00004.50USDCLT  00003.00USD0049GFMM000F00010001010000600000010NONREF/PENALTY0042GFMM000F00010001010000600000010APPLIES0060GFMM000F00010001010000600000010NONREF/0VALUAFTDPT/CHGFEE0058GFMM000F00010001010000600000010STNDBY/CHG FEE/NO RFND/0049GFMM000F00010001010000600000010CXL BY FLT DT/0055GFMM000F0001000101000000000006001 NVB30MAR/NVA30MAR0055GFMM000F0001000101000000000006002 NVB30MAR/NVA30MAR0055GFMM000F0001000101000000000006003 NVB05APR/NVA05APR0055GFMM000F0001000101000000000006004 NVB05APR/NVA05APR0072GFMM000F00010001010100600000020LAST DATE TO PURCHASE TICKET: 01MAR120055GFMM000F00010001010117000000020TICKETING AGENCY DAP0061GFMM000F00010001010117100000020DEFAULT PLATING CARRIER DL0049GFMM000F00010001010102600000020E-TKT REQUIRED0082GFMM000F00010001010000000000020ADDITIONAL TAXES, SURCHARGES, OR FEES MAY APPLY0318GFRR000F00030000NNNNNNNNNNNNNNNN00000003  NNNNNNNNNNNNNNNN000000    NNNNNYNYNNYNYNNNNNNYNNYNNYNNNNNN021001021    NNNNNNNNNNNNNNNN                                    2NNYNYNNNYYNNNNNN000100P   NNNNNNNN       NNYNNNYNYYNNNNNN150.00DUSDNNNNNNNN       NNYNYYYNYYYYNNYNYNYNNNNNNNNNNNNN20120301000001860NNNNNNNNNNNNNNNN 0089GFFC000F0001000101NYC DL WAS70.70UA ATL129.30US X/CLT Q18.60 US NYC113.49USD332.09END0186GFSF000F00010001011ANYC,1BDL,1AWAS,4A70.70,1CUA07A0NP,3E0101,1BUA,1AATL,4A129.30,1CVA14MN,3E0102,1BUS,2AX/,1ACLT,4BQ18.60,1BUS,1ANYC,4A113.49,1CKXAVNA4P,3E020304,1EUSD,4F332.09,1FEND0027GZOP000F0001000101NNNNN0027GZEQ000F0001000101DL NY0052GRFB003F00010101UA07A0NP0101VA14MN  0102KXAVNA4P0076GFBK000F0001000003U YNNNNNNNNNNNNNNNV NYNNNNNNNNNNNNNNK NNYYNNNNNNNNNNNN0058GZXI000F0001000001020200371U Y@|00755000381V N@|0054800090GZXI000F0001000002020400321K Y@|     000331K N@|     000341K Y@|     000351K N@|     00052GFRH000F00030000NNNNYNNNYNNNNNNNNNNNNNNNNNNNN4NN0093GFIS000F00050001DL 609520120330LGA  IAD  000YNNNNNNN08251004U NNNNNNNN00000215NNNNNNNN  Y0152GFSR000F0006000101012012033020120330 UA07A0NP        0PC        70.700010011E0021500000NNNNNNNNUA07A0NPUA07A0NP     N  DAP 2600000              0.000058GFTL000F000100010101UA07A0NP                          0049GFMC000F000101000101FSIP1                    0060GFTK000F000300010101UA07A0NP                          S 0205GFRI000F000400010101NNNNNNNNLGA  IAD  20120330DL UA07A0NP  0007070USD200070700000000000000000YYNNNNNNNNNNNNNN       4040000404000000NNNNNNNN0000000F60A00090560000511                    099             0093GFIS000F00050002UA 374720120330IAD  ATL  000YNNNNNNN12411438W NNNNNNNN00000541NNNNNNNN  Y0152GFSR000F0006000101022012033020120330 WA14MN          0PC       120.000020012E0054100000NNNNNNNNWA14MN  WA14MN       N  DAP 2600000              0.000058GFTL000F000100010102WA14MN                            0049GFMC000F000101000201FSIP1                    0060GFTK000F000300010102WA14MN                            S 0205GFRI000F000400010102NNNNNNNNIAD  ATL  20120330UA WA14MN    0012000USD200120000000000000000000YYNNNNNNNNNNNNNN       4040000404000000NNNNNNNN0000000471A00060M10000001                    099             0093GFIS000F00050003US 148020120405ATL  CLT  000YNNNNNNN14001516K NNNNNNNN00000228NNNNNNNN  Y0152GFSR000F0006000101032012040520120405XKXAVNA4P        0PC            00030013E0022800000NNNNNNNNKXAVNA4PKXAVNA4P     N  DAP 2600000              0.000058GFTL000F000100010103KXAVNA4P                          0049GFMC000F000101000301FSIP1                    0093GFIS000F00050004US 149020120405CLT  LGA  000YNNNNNNN16151810K NNNNNNNN00000538NNNNNNNN  Y0152GFSR000F0006000101042012040520120405 KXAVNA4P        0PC       132.090030013E0053800000NNNNNNNNKXAVNA4PKXAVNA4P     N  DAP 2600000              0.000058GFTL000F000100010104KXAVNA4P                          0049GFMC000F000101000401FSIP1                    0039GFSU000F00010001010405000001860USD20060GFTK000F000300010103KXAVNA4P                          S 0205GFRI000F000400010103NNNNNNNNATL  LGA  20120405US KXAVNA4P  0013209USD200113490000000000000000YYNNNNNNNNNNNNNN       C340000404000000NNNNNNNN0000002EF2A00025250000700                    099          ADT0172GFGQ000F000300010192012030120120229    USD00000032279000000000002   000000000000USD000000388702               YNNNNNNNNNNNNYNN04AY00010.00US00024.21XF00016.50ZP00015.200248GFEQ000F0002000101YNNNNNNNNNNNNNNN   0000000000000   0000000000000   0000000000000   0000000000000   0000000000000   0000000000000   0000000000000   0000000000000   0000000000000                                DAP 2600000  DAP 2600000  NNNNNNNN0078GFJT000F000100010103NNYNNNNN01NNNNNNNNNNYNNNNN01NNNNNNNNNNYNNNNN01NNNNNNNN0109GFTS000F0001000101  ZP USD2NNNNNNNN04LGA  00000000380 IAD  00000000380 ATL  00000000380 CLT  00000000380 0052GFTC004F0001000101ZPLGA  01IAD  02ATL  03CLT  040052GFTC004F0001000101XFLGA  01IAD  02ATL  03CLT  040058GFTX000F0001000101       24.21        0.00        0.000058GFCI000F00020001010102NNNNNNNNNNNNNNNNNNNNNNNNNNNNNNNN0058GFCI000F00020001010202NNNNNNNNNNNNNNNNNNNNNNNNNNNNNNNN0074GFCI000F00020001010303NNNNNNNNNNNNNNNNNNNNNNNNNNNNNNNNNNNNNNNNNNNNNNNN0060GFPI000F00010001ADT0000000NYNNNYNNADT0000000NNNNNYNN01010088GFPF000F000200000104LGA  00004.50USDIAD  00004.50USDATL  00004.50USDCLT  00003.00USD0049GFMM000F00010001010000600000010NONREF/PENALTY0042GFMM000F00010001010000600000010APPLIES0060GFMM000F00010001010000600000010NONREF/0VALUAFTDPT/CHGFEE0058GFMM000F00010001010000600000010STNDBY/CHG FEE/NO RFND/0049GFMM000F00010001010000600000010CXL BY FLT DT/0055GFMM000F0001000101000000000006001 NVB30MAR/NVA30MAR0055GFMM000F0001000101000000000006002 NVB30MAR/NVA30MAR0055GFMM000F0001000101000000000006003 NVB05APR/NVA05APR0055GFMM000F0001000101000000000006004 NVB05APR/NVA05APR0072GFMM000F00010001010100600000020LAST DATE TO PURCHASE TICKET: 01MAR120055GFMM000F00010001010117000000020TICKETING AGENCY DAP0061GFMM000F00010001010117100000020DEFAULT PLATING CARRIER DL0049GFMM000F00010001010102600000020E-TKT REQUIRED0082GFMM000F00010001010000000000020ADDITIONAL TAXES, SURCHARGES, OR FEES MAY APPLY0318GFRR000F00030000NNNNNNNNNNNNNNNN00000003  NNNNNNNNNNNNNNNN000000    NNNNNYNYNNYNYNNNNNNYNNYNNYNNNNNN021001021    NNNNNNNNNNNNNNNN                                    2NNYNYNNNYYNNNNNN000100P   NNNNNNNN       NNYNNNYNYYNNNNNN150.00DUSDNNNNNNNN       NNYNYYYNYYYYNNYNYNYNNNNNNNNNNNNN20120301000001860NNNNNNNNNNNNNNNN 0089GFFC000F0001000101NYC DL WAS70.70UA ATL120.00US X/CLT Q18.60 US NYC113.49USD322.79END0186GFSF000F00010001011ANYC,1BDL,1AWAS,4A70.70,1CUA07A0NP,3E0101,1BUA,1AATL,4A120.00,1CWA14MN,3E0102,1BUS,2AX/,1ACLT,4BQ18.60,1BUS,1ANYC,4A113.49,1CKXAVNA4P,3E020304,1EUSD,4F322.79,1FEND0027GZOP000F0001000101NNNNN0027GZEQ000F0001000101DL NY0052GRFB003F00010101UA07A0NP0101WA14MN  0102KXAVNA4P0076GFBK000F0001000003U YNNNNNNNNNNNNNNNW NYNNNNNNNNNNNNNNK NNYYNNNNNNNNNNNN0090GZXI000F0001000001020400291U Y@|00755000301W N@|00548000311U Y@|00755000321W N@|0016200090GZXI000F0001000002020400321K Y@|     000331K N@|     000341K Y@|     000351K N@|     0
0052GFRH000F00030000NYNNYNNNNNNNNNNNNNNNNNNNNNNNNNNN0055GFMM000F00010000000004500005030NO FARES FOR REQUEST
0052GFRH000F00030000NYNNYNNNNNNNNNNNNNNNNNNNNNNNNNNN0055GFMM000F00010000000004500005030NO FARES FOR REQUEST
0052GFRH000F00030000NYNNYNNNNNNNNNNNNNNNNNNNNNNNNNNN0055GFMM000F00010000000004500005030NO FARES FOR REQUEST
0052GFRH000F00030000NYNNYNNNNNNNNNNNNNNNNNNNNNNNNNNN0055GFMM000F00010000000004500005030NO FARES FOR REQUEST
0052GFRH000F00030000NYNNYNNNNNNNNNNNNNNNNNNNNNNNNNNN0055GFMM000F00010000000004500005030NO FARES FOR REQUEST
0052GFRH000F00030000NYNNYNNNNNNNNNNNNNNNNNNNNNNNNNNN0055GFMM000F00010000000004500005030NO FARES FOR REQUEST
0052GFRH000F00030000NYNNYNNNNNNNNNNNNNNNNNNNNNNNNNNN0055GFMM000F00010000000004500005030NO FARES FOR REQUEST
0052GFRH000F00030000NYNNYNNNNNNNNNNNNNNNNNNNNNNNNNNN0055GFMM000F00010000000004500005030NO FARES FOR REQUEST
0052GFRH000F00030000NYNNYNNNNNNNNNNNNNNNNNNNNNNNNNNN0055GFMM000F00010000000004500005030NO FARES FOR REQUEST
0052GFRH000F00030000NYNNYNNNNNNNNNNNNNNNNNNNNNNNNNNN0055GFMM000F00010000000004500005030NO FARES FOR REQUEST
0052GFRH000F00030000NYNNYNNNNNNNNNNNNNNNNNNNNNNNNNNN0055GFMM000F00010000000004500005030NO FARES FOR REQUEST
done